:040000008031D02853
:100008007E1480310B1DCE288B13200030089500FC
:1000180022008E160B117808031D22287708F40099
:10002800F501F435F50DEA30740784000030753DAC
:1000380080388500003FF900013F3C287803031D04
:1000480035287708F400F501F435F50DEC30740720
:1000580084000130753D80388500003FF900013F7C
:100068003C2802307806031D3D28FF30F900033094
:10007800FA0080307706031D442801302000C000B4
:100088007708031D50282000C0017608031D4F285B
:100098000130F6005028F60120004008031D5928B9
:1000A8000130F4007408F7075B280130F702760383
:1000B800031D6828FF30F4000330F5007908740246
:1000C800F9007A08753BFA00380839040319C4287E
:1000D8007908BF007A08BE00A201A0010310380801
:1000E8003F18A207A20CA00CBF18A207A20CA00CD4
:1000F8003F19A207A20CA00CBF19A207A20CA00CC2
:100108003F1AA207A20CA00CBF1AA207A20CA00CAF
:100118003F1BA207A20CA00CBF1BA207A20CA00C9D
:10012800A1013E18A207A20CA10CBE18A207A20C9E
:10013800A10C3E19A207A20CA10CBE19A207A20C81
:10014800A10C3E1AA207A20CA10CBE1AA207A20C6F
:10015800A10C3E1BA207A20CA10CBE1BA207A20C5D
:10016800A10C20006108860062088700FF30F400B7
:100178000330F500403F7402F900413F753BC72842
:10018800FF30F9000330FA0079308631002622006A
:100198008E128B177E1009008031D228863168268E
:1001A8008031E100863169268031E200F601F701ED
:1001B800F801F901FA01203084000030850021306F
:1001C800863158267E1020008531E02D0034023417
:1001D80004340234083402340C3402341034023447
:1001E80014340234183402341C34023420340234F7
:1001F80024340234283402342C34023430340234A7
:1002080034340234383402343C3402344034023456
:1002180044340234483402344C3402345034023406
:1002280054340234583402345C34023460340234B6
:1002380064340234683402346C3402347034023466
:1002480074340234783402347C3402348034023416
:1002580084340234883402348C34023490340234C6
:1002680094340234983402349C340234A034023476
:10027800A4340234A8340234AC340234B034023426
:10028800B4340234B8340234BC340234C0340234D6
:10029800C4340234C8340234CC340234D034023486
:1002A800D4340234D8340234DC340234E034023436
:1002B800E4340234E8340234EC340234F0340234E6
:1002C800F4340234F8340234FB340234FF34023498
:1002D80003340334073403340B3403340F34033446
:1002E80013340334173403341B3403341F340334F6
:1002F80023340334273403342B3403342F340334A6
:1003080033340334373403343B3403343F34033455
:1003180043340334473403344B3403344F34033405
:1003280053340334573403345B3403345F340334B5
:1003380063340334673403346B3403346F34033465
:1003480073340334773403347B3403347F34033415
:1003580083340334873403348B3403348F340334C5
:1003680093340334973403349B3403349F34033475
:10037800A3340334A7340334AB340334AF34033425
:10038800B3340334B7340334BB340334BF340334D5
:10039800C3340334C7340334CB340334CF34033485
:1003A800D3340334D7340334DB340334DF34033435
:1003B800E3340334E7340334EB340334EF340334E5
:1003C800F3340334F7340334FB340334FF34033495
:1003D80000340234063402340C3402341234023449
:1003E800193402341F340234253402342B340234D5
:1003F80032340234383402343E3402344434023461
:100408004B34023451340234573402345D340234EC
:10041800633402346934023470340234763402347A
:100428007C34023482340234883402348E34023408
:10043800943402349A340234A0340234A634023498
:10044800AC340234B2340234B8340234BD34023429
:10045800C3340234C9340234CF340234D5340234BC
:10046800DA340234E0340234E5340234EB34023452
:10047800F1340234F6340234FC34023401340334E7
:10048800063403340C34033411340334163403347F
:100498001C34033421340334263403342B3403341A
:1004A80030340334353403343A3403343F340334BA
:1004B80044340334493403344E340334523403345B
:1004C800573403345C340334603403346534033400
:1004D800693403346E3403347234033476340334A9
:1004E8007A3403347F340334833403348734033455
:1004F8008B3403348F340334933403349734033404
:100508009A3403349E340334A2340334A5340334B8
:10051800A9340334AC340334B0340334B33403346F
:10052800B6340334B9340334BD340334C03403342B
:10053800C3340334C6340334C8340334CB340334EB
:10054800CE340334D1340334D3340334D6340334AF
:10055800D8340334DA340334DD340334DF34033479
:10056800E1340334E3340334E5340334E734033447
:10057800E9340334EB340334EC340334EE34033419
:10058800F0340334F1340334F3340334F4340334EF
:10059800F5340334F6340334F7340334F9340334CC
:1005A800F9340334FA340334FB340334FC340334AD
:1005B800FD340334FD340334FE340334FE34033491
:1005C800FE340334FF340334FF340334FF3403347C
:1005D800FF3403342B08C4002A08C3002908C200CA
:1005E8002808C100FF30C800FF30C700FF30C60030
:1005F800FD30C50085315E25823180304107D50048
:100608000330423DD6000030433DD7000030443D22
:10061800D8005808C4005708C3005608C200550837
:10062800C1000030CD000130CE000030CF000030D6
:10063800D0002408CD022508CE3B2608CF3B27084A
:10064800D03B5008C8004F08C7004E08C6004D08E8
:10065800C50085315E2582314108D1004208D200AB
:100668004308D3004408D4000930D436D30CD20C44
:10067800D10C890B392B5308DB005208DA005108DA
:10068800D90000305B02031D4F2B01305A02031DB5
:100698004F2B01305902031C792B5908CD005A08F9
:1006A800CE005B08CF000130CF36CE0CCD0C890BC5
:1006B800582B4D08D9004E08DA004F08DB000030EF
:1006C800CD000130CE000030CF005908CD025A08C5
:1006D800CE3B5B08CF3B4D08B0004E08B1004F0839
:1006E800B200B3010230BC0008000030CD00013078
:1006F800CE000030CF005908CD025A08CE3B5B0827
:10070800CF3B4D08B0004E08B1004F08B200B3010E
:10071800BC0108003608AC003708AD00AE01AF01D7
:100728002F08C4002E08C3002D08C2002C08C100E1
:100738000030C8000030C7000230C6004430C50091
:1007480085315E2583314408A3004308A20042088E
:10075800A1004108A0002008CD002108CE002208F1
:10076800CF002308D0000A30D036CF0CCE0CCD0CE9
:10077800890BB82B5008A3004F08A2004E08A1000F
:100788004D08A0002108B5002008B400003035024B
:100798007430031934020318E02B34080C3EA4000B
:1007A800003003180130A500A601A51BA6032608E2
:1007B800A7000130BB00080034088D3ED200FF308E
:1007C800353DD3005308CE005208CD000730CE3651
:1007D800CD0C890BEB2B4D08BD003D08CD00063034
:1007E800CD35FF3E031DF42B4D355207CE00CF010A
:1007F800D001D1015108A7005008A6004F08A50054
:100808004E08A4003D08023EBB0008002B08C400A7
:100818002A08C3002908C2002808C1000030C800FF
:100828000030C7000030C6001830C50085315E258D
:10083800843100304107D5000430423DD6000030F5
:10084800433DD7000030443DD8005808C40057083D
:10085800C3005608C2005508C1000030CD00013061
:10086800CE000030CF000030D0002408CD0225088B
:10087800CE3B2608CF3B2708D03B5008C8004F087E
:10088800C7004E08C6004D08C50085315E25843175
:100898004108D1004208D2004308D3004408D400DC
:1008A8000C30D436D30CD20CD10C890B552C5308F0
:1008B800DB005208DA005108D9000030CD000130C1
:1008C800CE000030CF005908CD025A08CE3B5B0855
:1008D800CF3B4D08B0004E08B1004F08B200B3013D
:1008E800BC0108008030280629042A042B04031DB3
:1008F800882C20002708B3002608B2002508B1007C
:100908002408B000BC01D52C2000E0012B08031DF1
:10091800972C2A08031D972C2908031D972C813032
:100928002802031CB22CFF302000DC000030DD0060
:100938000030DE000030DF002808DC022908DD3B3B
:100948002A08DE3B2B08DF3B5F08AB005E08AA00E5
:100958005D08A9005C08A800E001E00A7608031D0C
:10096800B92C200060080319D22C7608031DC42C6A
:1009780020006003031DC42C8231EE228431D52C63
:100988007603031DCB2C200060080319C02C7603C6
:10099800031DD52C20006003031DD52C84310A24A7
:1009A80084318531232508008531B9258431F80043
:1009B8007730C1008630C20085318D2584314208E8
:1009C800B7004108B6007630C1008630C2008531D4
:1009D8008D2584314208B9004108B8003908CA0099
:1009E8003808C900CA36C90CCA36C90C4908B80043
:1009F8004A08B9007530C1008630C20085318D259E
:100A080084314108A8004208A900AA01AB012808BE
:100A1800C9002908CA002A08CB002B08CC000230DC
:100A2800CC36CB0CCA0CC90C890B142D4C08AB0066
:100A38004B08AA004A08A9004908A8000800200095
:100A48003C03031D322D3B08493E840086300318C1
:100A5800013E8500000821009500080003303C068F
:100A6800031D412D3B084A3E840086300318013E91
:100A78008500000821009500080002303C06031D8F
:100A8800502D3B08473E840086300318013E850000
:100A980000082100950008003C08031D08003B08D9
:100AA800483E840086300318013E85000008210076
:100AB800950008000030CC000030CB000030CA00A0
:100AC8000030C900411C702D4508C9074608CA3DB9
:100AD8004708CB3D4808CC3D0130C535C60DC70D8C
:100AE800C80D890B712D0130C436C30CC20CC10C62
:100AF800890B782D4408430442044104031D662DE4
:100B08004C08C4004B08C3004A08C2004908C10089
:100B1800080021009D01200041088400420885004A
:100B28000008C3000130C335FF3E031D972D433530
:100B3800C60021001D082000460421009D001D1448
:100B48000D30890BA52D000021009D149D18AA2D9C
:100B58001D101C082000C50021001B082000C4002F
:100B68004508C2004408C100080078302000C100D0
:100B78008630C20085318D2585314208C80041087C
:100B8800C700013048025630031947020318CE2D1A
:100B98000030080002304802AB300319470203183E
:100BA800D72D0130080004304802003003194702ED
:100BB8000318D52D02300800863133268531863159
:100BC8005026853186316A2685318431D82485318D
:100BD80083318E2385318431762485312000300895
:100BE80095008B178431D824853183318E23853144
:100BF800843176248531F62DF30073088600870149
:100C0800403FF000413FF100F136F00CF136F00CB6
:100C180070082600910073088600870101080339CF
:100C2800F2007208F0000330F035FF3E031D182E65
:100C3800703513049300080022009A1391132100C1
:100C48000C15FF3020009B00260013080F38930076
:100C580025009E01200091101C089C000800863188
:100C68005E26863186313F26863186316426863176
:100C78008631202608000F3023008E000F30210017
:100C88008E0024008E01080007340634053404342D
:100C9800033402340134003491101C15911C522E77
:100CA800911021000C110800640080010131890BAA
:100CB800592E0034F030210099001F3098000800A8
:100CC800A03021009E000800213400348B16080053
:100CD8000034013404340334023401340034003461
:0A0CE80001340734063405340434E7
:020000040001F9
:04000E00E409FF0FF3
:00000001FF
