:040000008031D7284C
:100008007E1480312000380895000B1DD5288B13ED
:100018000B117808031D20287708F400F501F43542
:10002800F50DF130740784000030753D8038850087
:10003800003FF900013F3A287803031D3328770869
:10004800F400F501F435F50DF33074078400013040
:10005800753D80388500003FF900013F3A2802309D
:100068007806031D3B28FF30F9000330FA00803082
:100078007706031D42280130CC004D287708031D60
:100088004D28CC017608031D4C280130F6004D2878
:10009800F6014C08031D55280130F4007408F707D1
:1000A80057280130F7027603031D6428FF30F40057
:1000B8000330F50079087402F9007A08753BFA00F4
:1000C800400A4104031D7128FF30F4000330F50095
:1000D80079087402F9007A08CB284008410403190A
:1000E800CD287908CB007A08CA00A201A001031024
:1000F80040084B18A207A20CA00CCB18A207A20C10
:10010800A00C4B19A207A20CA00CCB19A207A20C99
:10011800A00C4B1AA207A20CA00CCB1AA207A20C87
:10012800A00C4B1BA207A20CA00CCB1BA207A20C75
:10013800A00CA1014A18A207A20CA10CCA18A20778
:10014800A20CA10C4A19A207A20CA10CCA19A20759
:10015800A20CA10C4A1AA207A20CA10CCA1AA20747
:10016800A20CA10C4A1BA207A20CA10CCA1BA20735
:10017800A20CA10C20006E0886006F088700FF30D3
:10018800F4000330F500403F7402F900413F753B2D
:10019800D028FF30F9000330FA0079308631BA26CA
:1001A8008B177E1009008031D92887313F2780318D
:1001B800EE00873140278031EF00F601F701F801A2
:1001C800F901FA0120308400003085002D30873194
:1001D80027277E1020008631952E003402340434FF
:1001E8000234083402340C34023410340234143427
:1001F8000234183402341C340234203402342434D7
:100208000234283402342C34023430340234343486
:100218000234383402343C34023440340234443436
:100228000234483402344C340234503402345434E6
:100238000234583402345C34023460340234643496
:100248000234683402346C34023470340234743446
:100258000234783402347C340234803402348434F6
:100268000234883402348C340234903402349434A6
:100278000234983402349C340234A0340234A43456
:100288000234A8340234AC340234B0340234B43406
:100298000234B8340234BC340234C0340234C434B6
:1002A8000234C8340234CC340234D0340234D43466
:1002B8000234D8340234DC340234E0340234E43416
:1002C8000234E8340234EC340234F0340234F434C6
:1002D8000234F8340234FB340234FF340234033479
:1002E8000334073403340B3403340F340334133426
:1002F8000334173403341B3403341F3403342334D6
:100308000334273403342B3403342F340334333485
:100318000334373403343B3403343F340334433435
:100328000334473403344B3403344F3403345334E5
:100338000334573403345B3403345F340334633495
:100348000334673403346B3403346F340334733445
:100358000334773403347B3403347F3403348334F5
:100368000334873403348B3403348F3403349334A5
:100378000334973403349B3403349F340334A33455
:100388000334A7340334AB340334AF340334B33405
:100398000334B7340334BB340334BF340334C334B5
:1003A8000334C7340334CB340334CF340334D33465
:1003B8000334D7340334DB340334DF340334E33415
:1003C8000334E7340334EB340334EF340334F334C5
:1003D8000334F7340334FB340334FF340334003478
:1003E8000234063402340C34023412340234193420
:1003F80002341F340234253402342B3402343234AC
:100408000234383402343E340234443402344B3437
:10041800023451340234573402345D3402346334C4
:1004280002346934023470340234763402347C3451
:10043800023482340234883402348E3402349434E0
:1004480002349A340234A0340234A6340234AC3470
:100458000234B2340234B8340234BD340234C33402
:100468000234C9340234CF340234D5340234DA3495
:100478000234E0340234E5340234EB340234F1342B
:100488000234F6340234FC340234013403340634C2
:1004980003340C34033411340334163403341C3459
:1004A800033421340334263403342B3403343034F6
:1004B8000334353403343A3403343F340334443496
:1004C8000334493403344E34033452340334573438
:1004D80003345C34033460340334653403346934DE
:1004E80003346E34033472340334763403347A3488
:1004F80003347F34033483340334873403348B3434
:1005080003348F34033493340334973403349A34E4
:1005180003349E340334A2340334A5340334A93499
:100528000334AC340334B0340334B3340334B63452
:100538000334B9340334BD340334C0340334C3340E
:100548000334C6340334C8340334CB340334CE34D0
:100558000334D1340334D3340334D6340334D83495
:100568000334DA340334DD340334DF340334E13460
:100578000334E3340334E5340334E7340334E9342F
:100588000334EB340334EC340334EE340334F03402
:100598000334F1340334F3340334F4340334F534DA
:1005A8000334F6340334F7340334F9340334F934B8
:1005B8000334FA340334FB340334FC340334FD3499
:1005C8000334FD340334FE340334FE340334FE3480
:1005D8000334FF340334FF340334FF340334FF346B
:1005E80003343308D0003208CF003108CE00300879
:1005F800CD00FF30D400FF30D300FF30D200FD30F3
:10060800D10086311326823100304D07E1000E30CB
:100618004E3DE20000304F3DE3000030503DE40025
:100628006408D0006308CF006208CE006108CD00DE
:100638000030D9000130DA000030DB000030DC0087
:100648002C08D9022D08DA3B2E08DB3B2F08DC3BAF
:100658005C08D4005B08D3005A08D2005908D100BE
:100668008631132682314D08DD004E08DE004F0822
:10067800DF005008E0000B30E036DF0CDE0CDD0C4C
:10068800890B402B6008E8005F08E7005E08E60079
:100698005D08E5006808031D5A2B6708031D5A2BDF
:1006A800013065020130663B031C8D2B2000650874
:1006B800D9006608DA006708DB006808DC0001304A
:1006C800DC36DB0CDA0CD90C890B642B5C08E800EF
:1006D8005B08E7005A08E6005908E5000030D90031
:1006E8000130DA000030DB000030DC006508D90298
:1006F8006608DA3B6708DB3B6808DC3B5C08BB0044
:100708005B08BA005A08B9005908B8000230C70097
:10071800080000302000D9000130DA000030DB008A
:100728000030DC006508D9026608DA3B6708DB3B65
:100738006808DC3B5C08BB005B08BA005A08B900D3
:100748005908B800C701080086316E268331F800C1
:100758004E30CD008730CE008631422683314E0898
:10076800BF004D08BE004D30CD008730CE00863129
:10077800422683314E08C1004D08C0004108D6000A
:100788004008D500D636D50CD636D50C5508C0004D
:100798005608C1004C30CD008730CE008631422645
:1007A80083314D08B0004E08B100B201B3010330E7
:1007B80049020318082C4208031DEB2B0030B30034
:1007C8000030B2000230B1000030B0000800230849
:1007D800B3002208B2002108B1002008B0002408A4
:1007E8003007D5002508313DD6002608323DD70010
:1007F8002708333DD8005808A7005708A600560810
:10080800A5005508A40008004208031D0D2C01305E
:10081800C2002408D5002508D6002608D7002708D6
:10082800D8000230D836D70CD60CD50C890B162C2C
:100838005808B3005708B2005608B1005508B00070
:100848003308A3003208A2003108A1003008A00034
:100858000030A7000030A6000030A5000030A4003A
:10086800080002303106300432043304031D472CDB
:1008780020002F08BB002E08BA002D08B9002C084C
:10088800B800C701842C2000ED013308031D552C46
:100898003208031D552C013030020230313B031C55
:1008A800702CFF302000E9000330EA000030EB0034
:1008B8000030EC003008E9023108EA3B3208EB3B33
:1008C8003308EC3B6C08B3006B08B2006A08B1004F
:1008D8006908B000ED01ED0A7608031D7B2C2000A5
:1008E8006D080319812C8231F5228431842C76031A
:1008F800031D842C20006D03752C85313D25843122
:100908008531B025843120004403031DA42C023016
:10091800E9000030EA000030EB000030EC00380855
:10092800E9073908EA3D3A08EB3D3B08EC3D6C081D
:10093800BB006B08BA006A08B9006908B80008006B
:1009480007304306031D08000130E9000030EA00C3
:100958000030EB000030EC003808E9073908EA3DC0
:100968003A08EB3D3B08EC3D6C08BB006B08BA004D
:100978006A08B9006908B80008003E08B4003F08D2
:10098800B500B601B7013708D0003608CF003508E2
:10099800CE003408CD000030D4000030D30002303F
:1009A800D2005830D1008631132684315008AB006C
:1009B8004F08AA004E08A9004D08A8002808D90029
:1009C8002908DA002A08DB002B08DC000A30DC36AC
:1009D800DB0CDA0CD90C890BEB2C5C08AB005B0840
:1009E800AA005A08A9005908A8002908BD00280823
:1009F800BC0000303D02743003193C020318132D6B
:100A08003C080C3EAC00003003180130AD00AE01CC
:100A1800AD1BAE032E08AF000130C60008003C082D
:100A28008D3EDE00FF303D3DDF005F08DA005E08E6
:100A3800D9000730DA36D90C890B1E2D5908C800A1
:100A48004808D9000630D935FF3E031D272D5935F2
:100A58005E07DA00DB01DC01DD015D08AF005C0840
:100A6800AE005B08AD005A08AC004808023EC6005C
:100A780008003308D0003208CF003108CE00300813
:100A8800CD000030D4000030D3000030D200183040
:100A9800D10086311326853100304D07E50010302E
:100AA8004E3DE60000304F3DE7000030503DE80085
:100AB8006808D0006708CF006608CE006508CD003A
:100AC8000030D9000130DA000030DB000030DC00F3
:100AD8002C08D9022D08DA3B2E08DB3B2F08DC3B1B
:100AE8005C08D4005B08D3005A08D2005908D1002A
:100AF8008631132685314D08DD004E08DE004F088B
:100B0800DF005008E0000E30E036DF0CDE0CDD0CB4
:100B1800890B882D6008E4005F08E3005E08E200A6
:100B28005D08E1000030D9000130DA000030DB0058
:100B38000030DC006108D9026208DA3B6308DB3B5D
:100B48006408DC3B5C08BB005B08BA005A08B900C3
:100B58005908B800C701080020004703031DD12D1C
:100B68008631DA2685312000C40044080319BF2DD8
:100B780087313327080087313C2720004608183E74
:100B8800840087300318013E850000082100950085
:100B980020004608013EC300080003304706031D35
:100BA800EF2D8631DA2685312000C4004408031D64
:100BB800BC2D87313C2720004608193E8400873029
:100BC8000318013E85000008210095002000460812
:100BD800023EC300080002304706031D022E4608E5
:100BE800163E840087300318013E85000008210066
:100BF800950020004608FF3EC30008004708031D73
:100C080008004608173E840087300318013E850017
:100C180000082100950020004608C30008000030A5
:100C2800D8000030D7000030D6000030D5004D1C69
:100C3800252E5108D5075208D63D5308D73D5408EC
:100C4800D83D0130D135D20DD30DD40D890B262EC8
:100C58000130D036CF0CCE0CCD0C890B2D2E500880
:100C68004F044E044D04031D1B2E5808D00057088E
:100C7800CF005608CE005508CD00080021009D0180
:100C880020004D0884004E0885000008CF00013080
:100C9800CF35FF3E031D4C2E4F35D20021001D08D5
:100CA8002000520421009D001D140D30890B5A2E7E
:100CB800000021009D149D185F2E1D101C082000A7
:100CC800D10021001B082000D0005108CE00500898
:100CD800CD0008004F302000CD008730CE0086318F
:100CE800422686314E08D4004D08D3000130540204
:100CF8005630031953020318832E003008000230BF
:100D08005402AB300319530203188C2E013008002B
:100D18000430540200300319530203188A2E02309B
:100D2800080087310227863187311F2786318731AE
:100D3800412786318331A82386318431C124863105
:100D4800843135248631380895008B178331A823E0
:100D5800863101302100A00020082000C907843115
:100D6800C1248631843135248631AA2EF3007308D4
:100D780086008701403FF000413FF100F136F00C5A
:100D8800F136F00C70082600910073088600870180
:100D980001080339F2007208F0000330F035FF3E15
:100DA800031DD22E70351304930008004608013E37
:100DB800CD00003003180130CE004E08803ACF0035
:100DC80080304F02083003194D02031CED2E01300C
:100DD80008000030080022009A13911321000C1516
:100DE800FF3020009B00260013080F3893002500D1
:100DF8009E01200091101C089C00080087312D27B7
:100E0800873187310E2787318731382787318631F7
:100E1800EF2608000F3023008E000F3021008E00CF
:100E280024008E01080007340634053404340334E2
:100E380002340134003491101C15911C212F91109B
:100E480021000C110800640080010131890B282F52
:100E58000034F030210099001F309800080021006C
:100E68001508083995000800A03021009E000800E8
:100E7800210095010800213400348B160800003445
:100E880001340434033402340134003400340134AE
:080E980007340634053404346C
:020000040001F9
:04000E00E409FF0FF3
:00000001FF
