:0400000080316928BA
:100008007E1480310B1D67288B137508200095001E
:100018000B117408031D20287308FA00FB01FA3538
:10002800FB0D7C307A07840000307B3D80388500EA
:10003800003FBD00013F3A287403031D33287308AD
:10004800FA00FB01FA35FB0D7E307A078400013097
:100058007B3D80388500003FBD00013F3A280230D3
:100068007406031D3B28FF30BD000330BE008030FE
:100078007306031D41280130F2007308031D4C2844
:10008800F2017108031D4B280130F1004C28F101E1
:100098007208031D54280130FA007A08F30756281D
:1000A8000130F3027103031D6328FF30FA000330A7
:1000B800FB003D087A02BD003E087B3BBE003D3098
:1000C80083318A238B177E10090080316B28F00159
:1000D800F101F201F301F401F50120308400003050
:1000E80085001F308331FE237E10200083316A2B68
:1000F8000034023404340234083402340C34023438
:100108001034023414340234183402341C340234E7
:100118002034023424340234283402342C34023497
:100128003034023434340234383402343C34023447
:100138004034023444340234483402344C340234F7
:100148005034023454340234583402345C340234A7
:100158006034023464340234683402346C34023457
:100168007034023474340234783402347C34023407
:100178008034023484340234883402348C340234B7
:100188009034023494340234983402349C34023467
:10019800A0340234A4340234A8340234AC34023417
:1001A800B0340234B4340234B8340234BC340234C7
:1001B800C0340234C4340234C8340234CC34023477
:1001C800D0340234D4340234D8340234DC34023427
:1001D800E0340234E4340234E8340234EC340234D7
:1001E800F0340234F4340234F8340234FB34023488
:1001F800FF34023403340334073403340B34033438
:100208000F34033413340334173403341B340334E6
:100218001F34033423340334273403342B34033496
:100228002F34033433340334373403343B34033446
:100238003F34033443340334473403344B340334F6
:100248004F34033453340334573403345B340334A6
:100258005F34033463340334673403346B34033456
:100268006F34033473340334773403347B34033406
:100278007F34033483340334873403348B340334B6
:100288008F34033493340334973403349B34033466
:100298009F340334A3340334A7340334AB34033416
:1002A800AF340334B3340334B7340334BB340334C6
:1002B800BF340334C3340334C7340334CB34033476
:1002C800CF340334D3340334D7340334DB34033426
:1002D800DF340334E3340334E7340334EB340334D6
:1002E800EF340334F3340334F7340334FB34033486
:1002F800FF34033400340234063402340C3402343C
:1003080012340234193402341F34023425340234CE
:100318002B34023432340234383402343E3402345A
:10032800443402344B3402345134023457340234E6
:100338005D34023463340234693402347034023474
:10034800763402347C340234823402348834023401
:100358008E340234943402349A340234A034023491
:10036800A6340234AC340234B2340234B834023421
:10037800BD340234C3340234C9340234CF340234B5
:10038800D5340234DA340234E0340234E534023449
:10039800EB340234F1340234F6340234FC340234DF
:1003A80001340334063403340C3403341134033475
:1003B800163403341C340334213403342634033410
:1003C8002B34033430340334353403343A340334AF
:1003D8003F34033444340334493403344E3403344F
:1003E80052340334573403345C34033460340334F4
:1003F80065340334693403346E340334723403349B
:10040800763403347A3403347F3403348334033446
:10041800873403348B3403348F34033493340334F4
:10042800973403349A3403349E340334A2340334A7
:10043800A5340334A9340334AC340334B03403345E
:10044800B3340334B6340334B9340334BD34033419
:10045800C0340334C3340334C6340334C8340334D7
:10046800CB340334CE340334D1340334D33403349B
:10047800D6340334D8340334DA340334DD34033463
:10048800DF340334E1340334E3340334E534033430
:10049800E7340334E9340334EB340334EC34033401
:1004A800EE340334F0340334F1340334F3340334D6
:1004B800F4340334F5340334F6340334F7340334B2
:1004C800F9340334F9340334FA340334FB34033491
:1004D800FC340334FD340334FD340334FE34033474
:1004E800FE340334FE340334FF340334FF3403345E
:1004F800FF340334FF3403343408A8003508A90056
:10050800AA01AB012B08C2002A08C1002908C000B3
:100518002808BF000030C6000030C5000230C40003
:100528005830C3008231E82282314208A3004108D2
:10053800A2004008A1003F08A0002008CB00210825
:10054800CC002208CD002308CE000A30CE36CD0CD0
:10055800CC0CCB0C890BAA2A4E08A3004D08A2008C
:100568004C08A1004B08A0002108AD002008AC00F1
:1005780000302D02743003192C020318C92A2C08E4
:100588000C3EB9000130B80008002C088D3ECF00A1
:10059800FF302D3DD0005008CC004F08CB0007306D
:1005A800CC36CB0C890BD42A4B08F0007008CB0052
:1005B8000630CB35FF3E031DDD2A4B354F07B9000A
:1005C8007008023EB80008000030CA000030C900B8
:1005D8000030C8000030C7003F1CFA2A4308C7078C
:1005E8004408C83D4508C93D4608CA3D0130C335E1
:1005F800C40DC50DC60D890BFB2A0130C236C10CCE
:10060800C00CBF0C890B022B4208410440043F0474
:10061800031DF02A4A08C2004908C1004808C00062
:100628004708BF00080021009D0120003F08840002
:10063800400885000008C1000130C135FF3E031D98
:10064800212B4135C40021001D082000440421004D
:100658009D001D140D30890B2F2B000021009D14C7
:100668009D18342B1D101C082000C30021001B08F6
:100678002000C2004308C0004208BF0008001C3028
:100688002000BF008430C000833117238331400825
:10069800C6003F08C500013046025630031945021E
:1006A8000318582B0030080002304602AB300319FB
:1006B80045020318612B013008000430460200305F
:1006C8000319450203185F2B023008008331D92330
:1006D80083318331F623833184310E24833183318E
:1006E800BD2383318231802283318331CC2383310E
:1006F8007508200095008B178331BD238331823123
:10070800802283318331CC238331802BF90079080F
:1007180086008701403FF600413FF700F736F60CA8
:10072800F736F60C760826009100790886008701CE
:1007380001080339F8007808F6000330F635FF3E63
:10074800031DA22B763513049300080022009A1388
:10075800911321000C15FF3020009B002600130880
:100768000F38930025009E01200091101C089C0062
:100778000800833143238331F4001B30BF008430E9
:10078800C000833117234008B5003F08B4000800B3
:100798003908F5003808EE3E840083300318013E1E
:1007A8008500000821009500080084310424833165
:1007B8008331E523833184310A2483318331AA23A9
:1007C80008000F3023008E000F3021008E00240017
:1007D8008E01080007340634053404340334023427
:1007E8000134003491101C15911CF82B9110210034
:1007F8000C110800640080010131890BFF2B0034C3
:10080800F030210099001F3098000800A030210026
:100818009E0008008B1608000034013404340334A9
:10082800023401340034003401340734063405340A
:02083800043486
:020000040001F9
:04000E00E409FF0FF3
:00000001FF
