:040000008031DD2846
:100008007E14803120002E0895000B1DDB288B13F1
:1000180022008E160B117808031D22287708F40099
:10002800F501F435F50DF730740784000030753D9F
:1000380080388500003FF900013F3C287803031D04
:1000480035287708F400F501F435F50DF930740713
:1000580084000130753D80388500003FF900013F7C
:100068003C2802307806031D3D28FF30F900033094
:10007800FA0080307706031D442801302000BF00B5
:100088007708031D50282000BF017608031D4F285C
:100098000130F6005028F60120003F08031D5928BA
:1000A8000130F4007408F7075B280130F702760383
:1000B800031D6828FF30F4000330F5007908740246
:1000C800F9007A08753BFA00350A3604031D7528CD
:1000D800FF30F4000330F50079087402F9007A085B
:1000E800CF28350836040319D1287908BE007A08C4
:1000F800BD00A201A001031035083E18A207A20CFA
:10010800A00CBE18A207A20CA00C3E19A207A20CB4
:10011800A00CBE19A207A20CA00C3E1AA207A20CA2
:10012800A00CBE1AA207A20CA00C3E1BA207A20C90
:10013800A00CBE1BA207A20CA00CA1013D18A2078F
:10014800A20CA10CBD18A207A20CA10C3D19A20774
:10015800A20CA10CBD19A207A20CA10C3D1AA20762
:10016800A20CA10CBD1AA207A20CA10C3D1BA20750
:10017800A20CA10CBD1BA207A20CA10C20005308C5
:10018800860054088700FF30F4000330F500403F34
:100198007402F900413F753BD428FF30F900033061
:1001A800FA0079308531FA2522008E128B177E10DD
:1001B80009008031DF2886319E268031D3008631C0
:1001C8009F268031D400F601F701F801F901FA0100
:1001D80020308400003085002030863186267E104D
:1001E800200086311A2E00340234043402340834D4
:1001F80002340C3402341034023414340234183407
:1002080002341C34023420340234243402342834B6
:1002180002342C3402343034023434340234383466
:1002280002343C3402344034023444340234483416
:1002380002344C34023450340234543402345834C6
:1002480002345C3402346034023464340234683476
:1002580002346C3402347034023474340234783426
:1002680002347C34023480340234843402348834D6
:1002780002348C3402349034023494340234983486
:1002880002349C340234A0340234A4340234A83436
:100298000234AC340234B0340234B4340234B834E6
:1002A8000234BC340234C0340234C4340234C83496
:1002B8000234CC340234D0340234D4340234D83446
:1002C8000234DC340234E0340234E4340234E834F6
:1002D8000234EC340234F0340234F4340234F834A6
:1002E8000234FB340234FF34023403340334073459
:1002F80003340B3403340F34033413340334173406
:1003080003341B3403341F340334233403342734B5
:1003180003342B3403342F34033433340334373465
:1003280003343B3403343F34033443340334473415
:1003380003344B3403344F340334533403345734C5
:1003480003345B3403345F34033463340334673475
:1003580003346B3403346F34033473340334773425
:1003680003347B3403347F340334833403348734D5
:1003780003348B3403348F34033493340334973485
:1003880003349B3403349F340334A3340334A73435
:100398000334AB340334AF340334B3340334B734E5
:1003A8000334BB340334BF340334C3340334C73495
:1003B8000334CB340334CF340334D3340334D73445
:1003C8000334DB340334DF340334E3340334E734F5
:1003D8000334EB340334EF340334F3340334F734A5
:1003E8000334FB340334FF3403340034023406345A
:1003F80002340C34023412340234193402341F34F7
:100408000234253402342B34023432340234383482
:1004180002343E340234443402344B34023451340E
:100428000234573402345D3402346334023469349C
:10043800023470340234763402347C340234823428
:100448000234883402348E340234943402349A34B8
:100458000234A0340234A6340234AC340234B23448
:100468000234B8340234BD340234C3340234C934DB
:100478000234CF340234D5340234DA340234E0346E
:100488000234E5340234EB340234F1340234F63405
:100498000234FC34023401340334063403340C349B
:1004A800033411340334163403341C340334213434
:1004B8000334263403342B340334303403343534D2
:1004C80003343A3403343F34033444340334493472
:1004D80003344E34033452340334573403345C3415
:1004E80003346034033465340334693403346E34BC
:1004F800033472340334763403347A3403347F3467
:10050800033483340334873403348B3403348F3413
:10051800033493340334973403349A3403349E34C5
:100528000334A2340334A5340334A9340334AC347B
:100538000334B0340334B3340334B6340334B93435
:100548000334BD340334C0340334C3340334C634F1
:100558000334C8340334CB340334CE340334D134B5
:100568000334D3340334D6340334D8340334DA347C
:100578000334DD340334DF340334E1340334E33447
:100588000334E5340334E7340334E9340334EB3417
:100598000334EC340334EE340334F0340334F134EC
:1005A8000334F3340334F4340334F5340334F634C5
:1005B8000334F7340334F9340334F9340334FA34A4
:1005C8000334FB340334FC340334FD340334FD3486
:1005D8000334FE340334FE340334FE340334FF346E
:1005E8000334FF340334FF340334FF3403342B085B
:1005F800C0002C08C1002D08C200FD30C300FF3028
:10060800C400FF30C5008531D425823180304007D1
:10061800CC000330413DCD000030423DCE004C08B7
:10062800C0004D08C1004E08C2002808003CC300A5
:100638002908031C290F013CC4002A08031C2A0F9F
:10064800003CC5008531D42582314008C9004108E5
:10065800CA004208CB000930CB36CA0CC90C890B3A
:10066800302B4908CF004A08D0004B08D100003091
:100678005102031D452B01305002031D452B01304B
:100688004F02031C692B4F08C9005008CA005108C3
:10069800CB000130CB36CA0CC90C890B4E2B49084C
:1006A800CF004A08D0004B08D1004F08003CAE00EC
:1006B8005008031C500F013CAF005108031C510F98
:1006C800003CB0000230BB0008004F08003CAE0000
:1006D8005008031C500F013CAF005108031C510F78
:1006E800003CB000BB0108003308A4003408A50092
:1006F800A601A7012708C3002608C2002508C100D3
:100708002408C0000030C7000030C6000230C50011
:100718004430C4008531522583314308A300420880
:10072800A2004108A1004008A0002008CC00210830
:10073800CD002208CE002308CF000A30CF36CE0CD9
:10074800CD0CCC0C890BA22B4F08A3004E08A2009D
:100758004D08A1004C08A0002108B2002008B100F3
:10076800003032027430031931020318CD2B3108DE
:100778000C3ECC00003003180130CD004C08A80016
:100788004D08A900890D893B8909AA000130BA00E2
:10079800080031088D3ED000FF30323DD1005108AD
:1007A800CD005008CC000730CD36CC0C890BD82BA7
:1007B8004C08BC003C08CC000630CC35FF3E031D7D
:1007C800E12B4C355007CD00CE01CF014D08A800D4
:1007D8004E08A9004F08AA003C08023EBA000800CB
:1007E80080302B062C042D04031D032C2000280820
:1007F800AE002908AF002A08B000BB013D2C20003C
:10080800D20100302D02031D0F2C00302C02031DD5
:100818000F2C81302B02031C202C2B08FF3CAB0033
:100828002C08031C2C0F003CAC002D08031C2D0FBA
:10083800003CAD00D201D20A760803195208031908
:100848003A2C7608031D2F2C5203031D2F2C8231BE
:10085800FB2283313D2C76030319520803192B2CF4
:100868007603031D3D2C5203031D3D2C8431BE2409
:10087800833184315C24833120003803031D4E2CDE
:1008880002302E07AE0000302F3DAF000030303D63
:10089800B000080007303706031D080001302E0796
:1008A800AE0000302F3DAF000030303DB0000800F2
:1008B8003B03031D7C2C8631392684312000B80087
:1008C800380803196A2C86319226080086319B263F
:1008D80020003A08773E840086300318013E8500E0
:1008E80000082100950020003A08013EB7000800E2
:1008F80003303B06031D9A2C8631392684312000AB
:10090800B8003808031D672C86319B2620003A085A
:10091800783E840086300318013E850000082100D7
:10092800950020003A08013EB700080002303B0657
:10093800031DAD2C3A08753E840086300318013E2D
:10094800850000082100950020003A08FF3EB70006
:1009580008003B08031D08003A08763E84008630EC
:100968000318013E850000082100950020003A0880
:10097800B70008002B08C0002C08C1002D08C200D1
:100988001830C3000030C4000030C5008531D425BC
:10099800843100304007CF000430413DD0000030A2
:1009A800423DD1004F08C0005008C1005108C200A4
:1009B8002808003CC3002908031C290F013CC40077
:1009C8002A08031C2A0F003CC5008531D425843130
:1009D8004008C9004108CA004208CB000C30CB3699
:1009E800CA0CC90C890BF32C4908CC004A08CD0065
:1009F8004B08CE004C08003CAE004D08031C4D0FC0
:100A0800013CAF004E08031C4E0F003CB000BB0178
:100A180008008531AD258531F800AD30C00086303D
:100A2800C1008531812585314108B4004008B300F3
:100A3800AC30C0008630C100853181258531410840
:100A4800B6004008B5003608C9003508C800C936E0
:100A5800C80CC936C80C4808B5004908B600AB3000
:100A6800C0008630C1008531812585314008AB0042
:100A78004108AC00AD012B08C8002C08C9002D089E
:100A8800CA000230CA36C90CC80C890B462D480862
:100A9800AB004908AC004A08AD0008000030CB00A4
:100AA8000030CA000030C9000030C800401C642D66
:100AB8004408C8074508C93D4608CA3D4708CB3D14
:100AC8000130C435C50DC60DC70D890B652D013024
:100AD800C336C20CC10CC00C890B6C2D43084204F0
:100AE80041044004031D5A2D4B08C3004A08C200A4
:100AF8004908C1004808C000080021009D012000E5
:100B080040088400410885000008C2000130C23551
:100B1800FF3E031D8B2D4235C50021001D08200016
:100B2800450421009D001D140D30890B992D0000EE
:100B380021009D149D189E2D1D101C082000C40026
:100B480021001B082000C3004408C1004308C0005E
:100B58000800AE302000C0008630C10085318125F4
:100B680085314108C7004008C600013047025630A9
:100B7800031946020318C22D00300800023047024C
:100B8800AB30031946020318CB2D0130080004309E
:100B980047020030031946020318C92D0230080025
:100BA8000030C6000030C7000030C800401CE22DED
:100BB8004308C6074408C73D4508C83D0130C3354A
:100BC800C40DC50D890BE32D0130C236C10CC00C14
:100BD800890BE92D420841044004031DDA2D46081B
:100BE800C0004708C1004808C2000800F3007308A5
:100BF80086008701403FF000413FF100F136F00CDC
:100C0800F136F00C70082600910073088600870101
:100C180001080339F2007208F0000330F035FF3E96
:100C2800031D122E703513049300080086316126C7
:100C3800863186317E2686318631A02686318531F9
:100C48000D2586318331782386318331F42386312B
:100C58002E0895008B1785310D2586318331782331
:100C680086318331F42386312F2E3A08013EC000A5
:100C7800003003180130C1004108803AC2008030BA
:100C88004202083003194002031C4C2E01300800B0
:100C98000030080022009A13911321000C15FF3030
:100CA80020009B00260013080F38930025009E01A2
:100CB800200091101C089C00080086318C26863183
:100CC80086316D26863186319726863186314E26C5
:100CD80008000F3023008E000F3021008E00240002
:100CE8008E01080007340634053404340334023412
:100CF8000134003491101C15911C802E9110210094
:100D08000C110800640080010131890B872E003422
:100D1800F030210099001F309800080021001508C4
:100D2800083995000800A03021009E000800210025
:100D380095010800213400348B1608000034013472
:100D480004340334023401340034003401340734E9
:060D5800063405340434EA
:020000040001F9
:04000E00E409FF0FF3
:00000001FF
