:100000008031D428213400347E1480310B1DD22855
:100010008B1320004808950022008E160B117308E0
:10002000031D222871088500700884008435850D21
:10003000F33084070530053D80388500003FF4002B
:10004000013F3C287303031D3528710885007008A3
:1000500084008435850DEF3084070030053D8038FD
:100060008500003FF400013F3C2802307306031D69
:100070003D28FF30F4000330F500023071067004B3
:10008000031D452801302000C40070087104031DC1
:1000900052282000C4014508031D51280130C50025
:1000A0005228C50120004408031D5B280130F007D9
:1000B0000030F13D5F280130F0020030F13B450394
:1000C000031D6C28FF30FA000330FB0074087A022D
:1000D000F40075087B3BF500340835040319C82883
:1000E0007408C7007508C600A201A00103103408F7
:1000F0004718A207A20CA00CC718A207A20CA00CBC
:100100004719A207A20CA00CC719A207A20CA00CA9
:10011000471AA207A20CA00CC71AA207A20CA00C97
:10012000471BA207A20CA00CC71BA207A20CA00C85
:10013000A1014618A207A20CA10CC618A207A20C86
:10014000A10C4619A207A20CA10CC619A207A20C69
:10015000A10C461AA207A20CA10CC61AA207A20C57
:10016000A10C461BA207A20CA10CC61BA207A20C45
:10017000A10C20006608860067088700FF30FA009F
:100180000330FB00403F7A02F400413F7B3BCB2829
:10019000FF30F4000330F50074308D3195252200D6
:1001A0008E128B177E1009008031D62880310220F4
:1001B0008031E600803103208031E700F001F10159
:1001C000F201F301F401F5012030840000308500D4
:1001D00029308D3157257E1020008D31DC2D0034E3
:1001E0000234013402340334023404340234063459
:1001F000023407340234093402340A3402340C3431
:1002000002340E3402340F34023411340234123406
:1002100002341434023415340234173402341934DD
:1002200002341A3402341C3402341D3402341F34B4
:10023000023420340234223402342434023425348B
:10024000023427340234283402342A3402342B3462
:1002500002342D3402342F34023430340234323438
:100260000234333402343534023436340234383410
:100270000234393402343B3402343D3402343E34E7
:1002800002344034023441340234433402344434BE
:1002900002344634023447340234493402344B3495
:1002A00002344C3402344E3402344F34023451346C
:1002B0000234523402345434023455340234573444
:1002C0000234583402345A3402345C3402345D341B
:1002D00002345F34023460340234623402346334F2
:1002E00002346534023466340234683402346934CA
:1002F00002346B3402346D3402346E3402347034A0
:100300000234713402347334023474340234763477
:10031000023477340234793402347A3402347C344F
:1003200002347D3402347F34023480340234823427
:1003300002348334023485340234863402348834FF
:100340000234893402348B3402348C3402348E34D7
:1003500002348F34023491340234923402349434AF
:1003600002349534023497340234983402349A3487
:1003700002349B3402349D3402349E340234A0345F
:100380000234A1340234A3340234A4340234A63437
:100390000234A7340234A9340234AA340234AC340F
:1003A0000234AD340234AF340234B0340234B234E7
:1003B0000234B3340234B5340234B6340234B834BF
:1003C0000234B9340234BB340234BC340234BD3498
:1003D0000234BF340234C0340234C2340234C33471
:1003E0000234C5340234C6340234C8340234C93449
:1003F0000234CA340234CC340234CD340234CF3423
:100400000234D0340234D2340234D3340234D534FA
:100410000234D6340234D7340234D9340234DA34D4
:100420000234DC340234DD340234DE340234E034AD
:100430000234E1340234E3340234E4340234E53487
:100440000234E7340234E8340234EA340234EB3460
:100450000234EC340234EE340234EF340234F1343A
:100460000234F2340234F3340234F5340234F63414
:100470000234F8340234F9340234FA340234FC34ED
:100480000234FD340234FE340234003403340134C7
:10049000033402340334043403340534033406349F
:1004A000033408340334093403340A3403340C3479
:1004B00003340D3403340E34033410340334113454
:1004C000033412340334143403341534033416342F
:1004D000033418340334193403341A3403341C3409
:1004E00003341D3403341E340334203403342134E4
:1004F00003342234033423340334253403342634C0
:10050000033427340334293403342A3403342B349A
:1005100003342C3403342E3403342F340334303476
:100520000334313403343334033434340334353452
:1005300003343634033438340334393403343A342E
:1005400003343B3403343D3403343E3403343F340A
:1005500003344034033442340334433403344434E6
:1005600003344534033446340334483403344934C3
:1005700003344A3403344B3403344C3403344E34A0
:1005800003344F340334503403345134033452347D
:10059000033453340334553403345634033457345A
:1005A000033458340334593403345A3403345C3438
:1005B00003345D3403345E3403345F340334603415
:1005C00003346134033462340334643403346534F3
:1005D00003346634033467340334683403346934D1
:1005E00003346A3403346B3403346C3403346E34B0
:1005F00003346F340334703403347134033472348D
:10060000033473340334743403347534033476346C
:1006100003347734033478340334793403347A344C
:1006200003347C3403347D3403347E3403347F3428
:100630000334803403348134033482340334833408
:1006400003348434033485340334863403348734E8
:10065000033488340334893403348A3403348B34C8
:1006600003348C3403348D3403348E3403348F34A8
:100670000334903403349134033492340334933488
:100680000334943403349534033496340334973468
:1006900003349834033498340334993403349A344B
:1006A00003349B3403349C3403349D3403349E342C
:1006B00003349F340334A0340334A1340334A2340C
:1006C0000334A3340334A3340334A4340334A534EF
:1006D0000334A6340334A7340334A8340334A934D0
:1006E0000334AA340334AB340334AB340334AC34B2
:1006F0000334AD340334AE340334AF340334B03494
:100700000334B0340334B1340334B2340334B33477
:100710000334B4340334B5340334B5340334B63459
:100720000334B7340334B8340334B9340334B9343C
:100730000334BA340334BB340334BC340334BD341F
:100740000334BD340334BE340334BF340334C03403
:100750000334C0340334C1340334C2340334C334E7
:100760000334C3340334C4340334C5340334C634CB
:100770000334C6340334C7340334C8340334C834B0
:100780000334C9340334CA340334CA340334CB3495
:100790000334CC340334CD340334CD340334CE3479
:1007A0000334CF340334CF340334D0340334D1345E
:1007B0000334D1340334D2340334D2340334D33445
:1007C0000334D4340334D4340334D5340334D6342A
:1007D0000334D6340334D7340334D7340334D83411
:1007E0000334D9340334D9340334DA340334DA34F7
:1007F0000334DB340334DC340334DC340334DD34DD
:100800000334DD340334DE340334DE340334DF34C4
:100810000334DF340334E0340334E1340334E134AB
:100820000334E2340334E2340334E3340334E33492
:100830000334E4340334E4340334E5340334E5347A
:100840000334E6340334E6340334E7340334E73462
:100850000334E8340334E8340334E9340334E9344A
:100860000334E9340334EA340334EA340334EB3434
:100870000334EB340334EC340334EC340334EC341D
:100880000334ED340334ED340334EE340334EE3406
:100890000334EF340334EF340334EF340334F034EF
:1008A0000334F0340334F0340334F1340334F134DA
:1008B0000334F2340334F2340334F2340334F334C3
:1008C0000334F3340334F3340334F4340334F434AE
:1008D0000334F4340334F5340334F5340334F53499
:1008E0000334F5340334F6340334F6340334F63485
:1008F0000334F7340334F7340334F7340334F73470
:100900000334F8340334F8340334F8340334F9345A
:100910000334F9340334F9340334F9340334F93447
:100920000334FA340334FA340334FA340334FA3433
:100930000334FB340334FB340334FB340334FB341F
:100940000334FB340334FC340334FC340334FC340C
:100950000334FC340334FC340334FC340334FD34FA
:100960000334FD340334FD340334FD340334FD34E7
:100970000334FD340334FD340334FD340334FE34D6
:100980000334FE340334FE340334FE340334FE34C3
:100990000334FE340334FE340334FE340334FE34B3
:1009A0000334FE340334FF340334FF340334FF34A0
:1009B0000334FF340334FF340334FF340334FF348F
:1009C0000334FF340334FF340334FF340334FF347F
:1009D0000334FF340334FF340334FF340334FF346F
:1009E000033400340134F5340034EA340034E034A4
:1009F0000034D7340034CE340034C5340034BC3431
:100A00000034B4340034AD340034A53400349E34A2
:100A1000003498340034913400348B3400348534FD
:100A200000347F3400347A34003475340034703448
:100A300000346B34003466340034623400345E3485
:100A400000345A34003456340034523400344F34B5
:100A500000344B34003448340034453400344234DC
:100A600000343F3400343C3400343A3400343734FA
:100A700000343534003433340034303400342E3410
:100A800000342C3400342A34003429340034273420
:100A9000003425340034233400342234003420342C
:100AA00000341F3400341E3400341C3400341B3432
:100AB00000341A3400341934003418340034173434
:100AC0000034163400341534003414340034133434
:100AD0000034123400341134003410340034103433
:100AE00000340F3400340E3400340E3400340D342E
:100AF00000340C3400340C3400340B3400340B3428
:100B000000340A3400340A3400340934003409341F
:100B10000034093400340834003408340034073415
:100B2000003407340034073400340634003406340B
:100B30000034063400340534003405340034053400
:100B400000340534003404340034043400340434F4
:100B500000340434003404340034033400340334E7
:100B600000340334003403340034033400340334D9
:100B700000340234003402340034023400340234CD
:100B800000340234003402340034023400340134BE
:100B900000340134003401340034013400340134B1
:100BA00000340134003401340034013400340134A1
:100BB0000034013400340134003401340034003492
:100BC0000034003400340034003400340034003485
:100BD0000034003400340034003400340034003475
:100BE0000034003400340034023404340234083455
:100BF00002340C3402341034023414340234183405
:100C000002341C34023420340234243402342834B4
:100C100002342C3402343034023434340234383464
:100C200002343C3402344034023444340234483414
:100C300002344C34023450340234543402345834C4
:100C400002345C3402346034023464340234683474
:100C500002346C3402347034023474340234783424
:100C600002347C34023480340234843402348834D4
:100C700002348C3402349034023494340234983484
:100C800002349C340234A0340234A4340234A83434
:100C90000234AC340234B0340234B4340234B834E4
:100CA0000234BC340234C0340234C4340234C83494
:100CB0000234CC340234D0340234D4340234D83444
:100CC0000234DC340234E0340234E4340234E834F4
:100CD0000234EC340234F0340234F4340234F834A4
:100CE0000234FB340234FF34023403340334073457
:100CF00003340B3403340F34033413340334173404
:100D000003341B3403341F340334233403342734B3
:100D100003342B3403342F34033433340334373463
:100D200003343B3403343F34033443340334473413
:100D300003344B3403344F340334533403345734C3
:100D400003345B3403345F34033463340334673473
:100D500003346B3403346F34033473340334773423
:100D600003347B3403347F340334833403348734D3
:100D700003348B3403348F34033493340334973483
:100D800003349B3403349F340334A3340334A73433
:100D90000334AB340334AF340334B3340334B734E3
:100DA0000334BB340334BF340334C3340334C73493
:100DB0000334CB340334CF340334D3340334D73443
:100DC0000334DB340334DF340334E3340334E734F3
:100DD0000334EB340334EF340334F3340334F734A3
:100DE0000334FB340334FF3403342308CC002208DB
:100DF000CB002108CA002008C9000030D000003014
:100E0000CF00BB30CE003630CD008E312F2686315C
:100E10004908D5004A08D6004B08D7004C08D8002E
:100E20001030D836D70CD60CD50C890B112F56089C
:100E3000DA005508D90040085907D5005A080318A8
:100E40005A0AD600003056028030031955020318A2
:100E5000302F5908C3000130C200C101BF01080092
:100E600040085907D5005A0803185A0AD60080309E
:100E700055065604031D442FC3010430C20001303F
:100E8000C1000130BF00080040085907D5005A08CA
:100E900003185A0AD6000030560281300319550251
:100EA000031C080040085907D5005A0803185A0ABD
:100EB000D6005508803EDB00FF30563DDC005C0864
:100EC000D6005B08D5000730D636D50C890B642FC9
:100ED00055085604031D752F5B08C3000130C2007E
:100EE0000130C1000130BF0008005C08D6005B087B
:100EF000D5000730D636D50C890B7A2F550356040A
:100F0000031D08005B08803EDB00FF305C3DDC0019
:100F10005B08C3000130C2000330402F61346134EC
:100F2000613461346034603460346034603460341F
:100F30005F345F345F345F345F345F345E345E341B
:100F40005E345E345E345D345D345D345D345D3416
:100F50005D345C345C345C345C345C345B345B3412
:100F60005B345B345A345A345A345A345A34593410
:100F7000593459345934583458345834583457340F
:100F8000573457345734563456345634563455340F
:100F90005534553455345434543454345334533410
:100FA0005334523452345234513451345134503415
:100FB000503450344F344F344E344E344E344D341C
:100FC0004D344C344C344C344B344B344A344A3426
:100FD0004934493448344834473446344634453437
:100FE00045344434433443344234413440343F3450
:100FF0003F343E343D343C343B343A343934373476
:10100000363435343334323430342E342C342A34BC
:101010002734243420341C3416340E34003407347E
:10102000063405340434033402340134003400340B
:101030000134043403340234013400340034013404
:081040000734063405340434C2
:101A96008B160800A03021009E000800F0302100BF
:101AA60099001F3098000800640080010131890BFD
:101AB600582D00342000C900490886008701010816
:101AC6009500080091101C15911C672D911021009E
:101AD6000C1108000F3023008E000F3021008E00FD
:101AE60024008E0108008D3151258D318D316D25F3
:101AF6008D318D314D258D318D31822508002200A5
:101B06009A13911321000C15FF3020009B0026002C
:101B160013080F38930025009E01200091101C0821
:101B26009C000800F900790886008701403FF6000E
:101B3600413FF700F736F60CF736F60C7608260026
:101B4600910079088600870101080339F8007808B2
:101B5600F6000330F635FF3E031DAD2D7635130432
:101B66009300080023302000C9008830CA008E3157
:101B760003268D314A08D0004908CF0001305002B3
:101B8600563003194F020318CA2D003008000230E0
:101B96005002AB3003194F020318D32D0130080051
:101BA60004305002003003194F020318D12D0230C1
:101BB60008008D3176258D318D3165258D318D313C
:101BC6004B258D318E315E268D318F311E278D311D
:101BD6008F318B278D318E31D1268D3148308D3125
:101BE6005D258D318B178E315E268D318F311E2707
:101BF6008D318F318B278D318E31D1268D31F62D5A
:101C060021009D012000490884004A08850000083B
:101C1600CB000130CB35FF3E031D0D2E4B35CE00DC
:101C260021001D0820004E0421009D001D140D30CA
:101C3600890B1B2E000021009D149D18202E1D10BF
:101C46001C082000CD0021001B082000CC004D08F8
:101C5600CA004C08C90008000030D4000030D30088
:101C66000030D2000030D100491C412E4D08D1076A
:101C76004E08D23D4F08D33D5008D43D0130CD35F6
:101C8600CE0DCF0DD00D890B422E0130CC36CB0CAC
:101C9600CA0CC90C890B492E4C084B044A0449044A
:101CA600031D372E5408CC005308CB005208CA0037
:101CB6005108C90008008D31B5258E31F300223058
:101CC600C9008830CA008E3103268E314A08B90011
:101CD6004908B8002130C9008830CA008E31032671
:101CE6008E314A08B5004908B4003508D2003408D8
:101CF600D100D236D10CD236D10C5108B4005208DC
:101D0600B5002030C9008830CA008E3103264A0843
:101D1600B3004908B20008002308CC002208CB0013
:101D26002108CA002008C9000030D0000030CF00CA
:101D36004430CE00C930CD008E312F268E31490871
:101D4600D5004A08D6004B08D7004C08D8001030FA
:101D5600D836D70CD60CD50C890BAB2E5608DA0024
:101D66005508D9004008D500D6015A085602031D69
:101D7600BE2E590855020318CB2E59084002803E44
:101D8600C3000130C2000230C1000130BF000800AC
:101D96005908C300C201C101BF0108003F08031D65
:101DA600C00142030319DB2E04304206031DDE2E5A
:101DB60040084307E32E4208031DE42E4308400271
:101DC600C8004103031DF22E7208103E84008830BD
:101DD6000318013E85000008210095000800033025
:101DE6004106031D012F7208113E84008830031836
:101DF600013E8500000821009500080002304106DA
:101E0600031D102F72080E3E840088300318013E11
:101E1600850000082100950008004108031D080000
:101E260072080F3E840088300318013E85000008C2
:101E36002100950008003808A8003908A900AA0161
:101E4600AB012B08CC002A08CB002908CA002808B9
:101E5600C9000030D0000030CF000230CE0058302C
:101E6600CD008E312F268F314C08AF004B08AE00C7
:101E76004A08AD004908AC002C08D5002D08D6004C
:101E86002E08D7002F08D8000A30D836D70CD60C23
:101E9600D50C890B482F5808AF005708AE005608D6
:101EA600AD005508AC002D08BD002C08BC00003064
:101EB6003D02743003193C020318672F3C080C3EA0
:101EC600C0000130F20008003C088D3ED900FF300A
:101ED6003D3DDA005A08D6005908D5000730D636F7
:101EE600D50C890B722F5508D700D8015708BA00B0
:101EF6005808BB003A08D5000630D535FF3E031D0D
:101F0600802F55355907C0003A08023EF2000800F6
:101F1600023033063204031D962FC3010130C2007E
:101F2600C101BF010800E501023033020130031987
:101F36003202031CAA2FFF30DD000330DE00320818
:101F46005D02B20033085E3BB300E501E50A0030EE
:101F5600DD000230DE0032085D02C90033085E3B58
:101F6600CA00CB01CC010030D0000030CF000130D8
:101F7600CE006930CD008E312F268F314C08E4001B
:101F86004B08E3004A08E2004908E1006108DD0069
:101F96006208DE006308DF006408E0000930E0360E
:101FA600DF0CDE0CDD0C890BD22F6008A3005F0866
:101FB600A2005E08A1005D08A0004508031DE92FE8
:101FC6006508031DE92F8631F52608004508031D1F
:101FD600F62F65030319F32FF62F6508031DF92F56
:101FE6008E318F26080045030319F02F4503031D84
:0A1FF60008006503031D0800E62F34
:020000040001F9
:04000E00E409FF0FF3
:00000001FF
