:040000008031C9285A
:100008007E1480310B1DC7288B13750820009500BE
:100018000B117208031D20287108FA00FB01FA353C
:10002800FB0DE4307A07840000307B3D8038850082
:10003800003FF300013F3A287203031D332871087B
:10004800FA00FB01FA35FB0DE6307A07840001302F
:100058007B3D80388500003FF300013F3A2802309D
:100068007206031D3B28FF30F3000330F400803094
:100078007106031D41280130C4007108031D4C2876
:10008800C4014508031D4B280130C5004C28C50193
:100098004408031D54280130FA007A08F10756284D
:1000A8000130F1024503031D6328FF30FA000330D5
:1000B800FB0073087A02F30074087B3BF4003408F1
:1000C80035040319BF287308C7007408C600A201C5
:1000D800A001031034084718A207A20CA00CC718E7
:1000E800A207A20CA00C4719A207A20CA00CC719C2
:1000F800A207A20CA00C471AA207A20CA00CC71AB0
:10010800A207A20CA00C471BA207A20CA00CC71B9D
:10011800A207A20CA00CA1014618A207A20CA10CD0
:10012800C618A207A20CA10C4619A207A20CA10C82
:10013800C619A207A20CA10C461AA207A20CA10C70
:10014800C61AA207A20CA10C461BA207A20CA10C5E
:10015800C61BA207A20CA10C200065088600660831
:100168008700FF30FA000330FB00403F7A02F300BB
:10017800413F7B3BC228FF30F3000330F40073306B
:100188008531C8258B177E1009008031CB28863130
:100198007F268031E500863180268031E600F00137
:1001A800F101F201F301F401F5012030840000307F
:1001B80085002830863167267E1020008531762D0F
:1001C8000034023404340234083402340C34023467
:1001D8001034023414340234183402341C34023417
:1001E8002034023424340234283402342C340234C7
:1001F8003034023434340234383402343C34023477
:100208004034023444340234483402344C34023426
:100218005034023454340234583402345C340234D6
:100228006034023464340234683402346C34023486
:100238007034023474340234783402347C34023436
:100248008034023484340234883402348C340234E6
:100258009034023494340234983402349C34023496
:10026800A0340234A4340234A8340234AC34023446
:10027800B0340234B4340234B8340234BC340234F6
:10028800C0340234C4340234C8340234CC340234A6
:10029800D0340234D4340234D8340234DC34023456
:1002A800E0340234E4340234E8340234EC34023406
:1002B800F0340234F4340234F8340234FB340234B7
:1002C800FF34023403340334073403340B34033467
:1002D8000F34033413340334173403341B34033416
:1002E8001F34033423340334273403342B340334C6
:1002F8002F34033433340334373403343B34033476
:100308003F34033443340334473403344B34033425
:100318004F34033453340334573403345B340334D5
:100328005F34033463340334673403346B34033485
:100338006F34033473340334773403347B34033435
:100348007F34033483340334873403348B340334E5
:100358008F34033493340334973403349B34033495
:100368009F340334A3340334A7340334AB34033445
:10037800AF340334B3340334B7340334BB340334F5
:10038800BF340334C3340334C7340334CB340334A5
:10039800CF340334D3340334D7340334DB34033455
:1003A800DF340334E3340334E7340334EB34033405
:1003B800EF340334F3340334F7340334FB340334B5
:1003C800FF34033400340234063402340C3402346B
:1003D80012340234193402341F34023425340234FE
:1003E8002B34023432340234383402343E3402348A
:1003F800443402344B340234513402345734023416
:100408005D340234633402346934023470340234A3
:10041800763402347C340234823402348834023430
:100428008E340234943402349A340234A0340234C0
:10043800A6340234AC340234B2340234B834023450
:10044800BD340234C3340234C9340234CF340234E4
:10045800D5340234DA340234E0340234E534023478
:10046800EB340234F1340234F6340234FC3402340E
:1004780001340334063403340C34033411340334A4
:10048800163403341C34033421340334263403343F
:100498002B34033430340334353403343A340334DE
:1004A8003F34033444340334493403344E3403347E
:1004B80052340334573403345C3403346034033423
:1004C80065340334693403346E34033472340334CA
:1004D800763403347A3403347F3403348334033476
:1004E800873403348B3403348F3403349334033424
:1004F800973403349A3403349E340334A2340334D7
:10050800A5340334A9340334AC340334B03403348D
:10051800B3340334B6340334B9340334BD34033448
:10052800C0340334C3340334C6340334C834033406
:10053800CB340334CE340334D1340334D3340334CA
:10054800D6340334D8340334DA340334DD34033492
:10055800DF340334E1340334E3340334E53403345F
:10056800E7340334E9340334EB340334EC34033430
:10057800EE340334F0340334F1340334F334033405
:10058800F4340334F5340334F6340334F7340334E1
:10059800F9340334F9340334FA340334FB340334C0
:1005A800FC340334FD340334FD340334FE340334A3
:1005B800FE340334FE340334FF340334FF3403348D
:1005C800FF340334FF3403342308CB002208CA0065
:1005D8002108C9002008C8000030CF000030CE0034
:1005E800BB30CD003630CC0085311B258231480820
:1005F800D4004908D5004A08D6004B08D700103067
:10060800D736D60CD50CD40C890B042B5508D90039
:100618005408D80040085807D40059080318590A44
:10062800D500003055028030031954020318232BDB
:100638005808C3000130C200C101BF0108004008CA
:100648005807D40059080318590AD50080305406B1
:100658005504031D372BC3010430C2000130C1000B
:100668000130BF00080040085807D4005908031893
:10067800590AD50000305502813003195402031C71
:10068800080040085807D40059080318590AD5002B
:100698005408803EDA00FF30553DDB005B08D5008A
:1006A8005A08D4000730D536D40C890B572B540878
:1006B8005504031D682B5A08C3000130C2000130DD
:1006C800C1000130BF0008005B08D5005A08D400FB
:1006D8000730D536D40C890B6D2B54035504031DF4
:1006E80008005A08803EDA00FF305B3DDB005A08FC
:1006F800C3000130C2000330332B8030320633048C
:10070800031D8C2BC3010130C200C101BF010800C9
:10071800E40100303302813003193202031C9F2B9D
:10072800FF30DC0032085C02B20033090318890A82
:10073800B300E401E40A8030DC0032085C02C8003F
:1007480033090318890AC900CA01CB010030CF0058
:100758000030CE000130CD006930CC0085311B253A
:1007680083314B08E3004A08E2004908E1004808E1
:10077800E0006008DC006108DD006208DE00630854
:10078800DF000730DF36DE0CDD0CDC0C890BC62BF6
:100798005F08A3005E08A2005D08A1005C08A00035
:1007A8004508031DDD2B6408031DDD2B8231E8227B
:1007B80008004508031DEA2B64030319E72BEA2BFD
:1007C8006408031DED2B84316124080045030319D7
:1007D800E42B4503031D08006403031D0800DA2BFE
:1007E8003808A8003908A900AA01AB012B08CB00DA
:1007F8002A08CA002908C9002808C8000030CF0004
:100808000030CE000230CD00F830CC0085311B25F9
:1008180083314B08AF004A08AE004908AD004808CC
:10082800AC002C08D4002D08D5002E08D6002F08BF
:10083800D7000A30D736D60CD50CD40C890B1E2C11
:100848005708AF005608AE005508AD005408AC0074
:100858002D08BD002C08BC0000303D02743003197F
:100868003C0203183D2C3C080C3EC0000130F0004F
:1008780008003C088D3ED800FF303D3DD90059089E
:10088800D5005808D4000730D536D40C890B482C2D
:100898005408D600D7015608BA005708BB003A08D2
:1008A800D4000630D435FF3E031D562C5435580766
:1008B800C0003A08023EF00008002308CB002208D6
:1008C800CA002108C9002008C8000030CF00003045
:1008D800CE004430CD00C930CC0085311B25843191
:1008E8004808D4004908D5004A08D6004B08D70064
:1008F8001030D736D60CD50CD40C890B7D2C550866
:10090800D9005408D8004008D400D5015908550228
:10091800031D902C5808540203189D2C58084002B7
:10092800803EC3000130C2000230C1000130BF0068
:1009380008005808C300C201C101BF010800853181
:10094800A1258431F2008E30C8008630C900853177
:100958004A2584314908B9004808B8008D30C800D4
:100968008630C90085314A2584314908B5004808D0
:10097800B4003508D1003408D000D136D00CD136B7
:10098800D00C5008B4005108B5008C30C80086302F
:10099800C90085314A254908B3004808B200330820
:1009A800D1003208D000D136D00CD136D00C500846
:1009B800B2005108B300080020004103031DEF2CCA
:1009C8007008503E840086300318013E85000008F8
:1009D80021009500080003304106031DFE2C700815
:1009E800513E840086300318013E8500000821002E
:1009F8009500080002304106031D0D2D70084E3E7B
:100A0800840086300318013E850000082100950007
:100A180008004108031D080070084F3E8400863016
:100A28000318013E850000082100950008000030E9
:100A3800D3000030D2000030D1000030D000481C74
:100A48002D2D4C08D0074D08D13D4E08D23D4F08FA
:100A5800D33D0130CC35CD0DCE0DCF0D890B2E2DCC
:100A68000130CB36CA0CC90CC80C890B352D4B0884
:100A78004A0449044804031D232D5308CB00520897
:100A8800CA005108C9005008C800080021009D018B
:100A9800200048088400490885000008CA00013081
:100AA800CA35FF3E031D542D4A35CD0021001D08CF
:100AB80020004D0421009D001D140D30890B622D6E
:100AC800000021009D149D18672D1D101C08200092
:100AD800CC0021001B082000CB004C08C9004B08A3
:100AE800C800080086313A26853186315726853177
:100AF8008631812685318431A32485318331F423DD
:100B080085318331812385318631132685317530CE
:100B180086315F2685318B178431A3248531833153
:100B2800F423853183318123853122008E16863165
:100B38001326853122008E12902D8F302000C80098
:100B48008630C90085314A2585314908CF004808D3
:100B5800CE0001304F02563003194E020318B62D4D
:100B68000030080002304F02AB3003194E02031860
:100B7800BF2D0130080004304F02003003194E0227
:100B88000318BD2D02300800F90079088600870196
:100B9800403FF600413FF700F736F60CF736F60C03
:100BA8007608260091007908860087010108033934
:100BB800F8007808F6000330F635FF3E031DE02DF7
:100BC800763513049300080020003F08031DC00178
:100BD80042030319F32D04304206031DF72D400884
:100BE8004307F50008004208031D080043084002B7
:100BF800F50008007008013EC800003003180130F5
:100C0800C9004908803ACA0080304A0208300319EE
:100C18004802031C112E01300800003008008531FD
:100C2800E82586318531FE2586312000CB004B082A
:100C38000319212E86317326080086317C268631D9
:100C48008431E024080022009A13911321000C1526
:100C5800FF3020009B00260013080F389300250062
:100C68009E01200091101C089C00080086316D260A
:100C78008631863146268631863178268631863118
:100C8800272608000F3023008E000F3021008E0029
:100C980024008E0108000734063405340434033474
:100CA80002340134003491101C15911C592E9110F6
:100CB80021000C1108002000C800480886008701A0
:100CC800010895000800640080010131890B682E35
:100CD8000034F030210099001F30980008002100EE
:100CE8001508083995000800A03021009E0008006A
:100CF800210095010800213400348B1608000034C7
:100D0800013404340334023401340034003401342F
:080D18000734063405340434ED
:020000040001F9
:04000E00E409FF0FF3
:00000001FF
