:040000008031D7284C
:100008007E1480312000300895000B1DD5288B13F5
:100018000B117808031D20287708F400F501F43542
:10002800F50DF130740784000030753D8038850087
:10003800003FF900013F3A287803031D3328770869
:10004800F400F501F435F50DF33074078400013040
:10005800753D80388500003FF900013F3A2802309D
:100068007806031D3B28FF30F9000330FA00803082
:100078007706031D42280130C2004D287708031D6A
:100088004D28C2017608031D4C280130F6004D2882
:10009800F6014208031D55280130F4007408F707DB
:1000A80057280130F7027603031D6428FF30F40057
:1000B8000330F50079087402F9007A08753BFA00F4
:1000C800380A3904031D7128FF30F4000330F500A5
:1000D80079087402F9007A08CB283808390403191A
:1000E800CD287908C1007A08C000A201A001031038
:1000F80038084118A207A20CA00CC118A207A20C2C
:10010800A00C4119A207A20CA00CC119A207A20CAD
:10011800A00C411AA207A20CA00CC11AA207A20C9B
:10012800A00C411BA207A20CA00CC11BA207A20C89
:10013800A00CA1014018A207A20CA10CC018A2078C
:10014800A20CA10C4019A207A20CA10CC019A2076D
:10015800A20CA10C401AA207A20CA10CC01AA2075B
:10016800A20CA10C401BA207A20CA10CC01BA20749
:10017800A20CA10C20006408860065088700FF30E7
:10018800F4000330F500403F7402F900413F753B2D
:10019800D028FF30F9000330FA00793086313B2649
:1001A8008B177E1009008031D9288631DF268031EF
:1001B800E4008631E0268031E500F601F701F80118
:1001C800F901FA012030840000308500233086319F
:1001D800C7267E10200086315B2E0034023404349A
:1001E8000234083402340C34023410340234143427
:1001F8000234183402341C340234203402342434D7
:100208000234283402342C34023430340234343486
:100218000234383402343C34023440340234443436
:100228000234483402344C340234503402345434E6
:100238000234583402345C34023460340234643496
:100248000234683402346C34023470340234743446
:100258000234783402347C340234803402348434F6
:100268000234883402348C340234903402349434A6
:100278000234983402349C340234A0340234A43456
:100288000234A8340234AC340234B0340234B43406
:100298000234B8340234BC340234C0340234C434B6
:1002A8000234C8340234CC340234D0340234D43466
:1002B8000234D8340234DC340234E0340234E43416
:1002C8000234E8340234EC340234F0340234F434C6
:1002D8000234F8340234FB340234FF340234033479
:1002E8000334073403340B3403340F340334133426
:1002F8000334173403341B3403341F3403342334D6
:100308000334273403342B3403342F340334333485
:100318000334373403343B3403343F340334433435
:100328000334473403344B3403344F3403345334E5
:100338000334573403345B3403345F340334633495
:100348000334673403346B3403346F340334733445
:100358000334773403347B3403347F3403348334F5
:100368000334873403348B3403348F3403349334A5
:100378000334973403349B3403349F340334A33455
:100388000334A7340334AB340334AF340334B33405
:100398000334B7340334BB340334BF340334C334B5
:1003A8000334C7340334CB340334CF340334D33465
:1003B8000334D7340334DB340334DF340334E33415
:1003C8000334E7340334EB340334EF340334F334C5
:1003D8000334F7340334FB340334FF340334003478
:1003E8000234063402340C34023412340234193420
:1003F80002341F340234253402342B3402343234AC
:100408000234383402343E340234443402344B3437
:10041800023451340234573402345D3402346334C4
:1004280002346934023470340234763402347C3451
:10043800023482340234883402348E3402349434E0
:1004480002349A340234A0340234A6340234AC3470
:100458000234B2340234B8340234BD340234C33402
:100468000234C9340234CF340234D5340234DA3495
:100478000234E0340234E5340234EB340234F1342B
:100488000234F6340234FC340234013403340634C2
:1004980003340C34033411340334163403341C3459
:1004A800033421340334263403342B3403343034F6
:1004B8000334353403343A3403343F340334443496
:1004C8000334493403344E34033452340334573438
:1004D80003345C34033460340334653403346934DE
:1004E80003346E34033472340334763403347A3488
:1004F80003347F34033483340334873403348B3434
:1005080003348F34033493340334973403349A34E4
:1005180003349E340334A2340334A5340334A93499
:100528000334AC340334B0340334B3340334B63452
:100538000334B9340334BD340334C0340334C3340E
:100548000334C6340334C8340334CB340334CE34D0
:100558000334D1340334D3340334D6340334D83495
:100568000334DA340334DD340334DF340334E13460
:100578000334E3340334E5340334E7340334E9342F
:100588000334EB340334EC340334EE340334F03402
:100598000334F1340334F3340334F4340334F534DA
:1005A8000334F6340334F7340334F9340334F934B8
:1005B8000334FA340334FB340334FC340334FD3499
:1005C8000334FD340334FE340334FE340334FE3480
:1005D8000334FF340334FF340334FF340334FF346B
:1005E80003342B08C6002A08C5002908C4002808B7
:1005F800C300FF30CA00FF30C900FF30C800FD301B
:10060800C7008531B925823100304307D7000E3045
:10061800443DD8000030453DD9000030463DDA0061
:100628005A08C6005908C5005808C4005708C3002E
:100638000030CF000130D0000030D1000030D200AF
:100648002408CF022508D03B2608D13B2708D23BF7
:100658005208CA005108C9005008C8004F08C7000E
:100668008531B92582314308D3004408D4004508B0
:10067800D5004608D6000B30D636D50CD40CD30C92
:10068800890B402B5608DE005508DD005408DC00B5
:100698005308DB005E08031D5A2B5D08031D5A2B07
:1006A80001305B0201305C3B031C8D2B20005B0892
:1006B800CF005C08D0005D08D1005E08D200013090
:1006C800D236D10CD00CCF0C890B642B5208DE002B
:1006D8005108DD005008DC004F08DB000030CF0077
:1006E8000130D0000030D1000030D2005B08CF02CA
:1006F8005C08D03B5D08D13B5E08D23B5208B30092
:100708005108B2005008B1004F08B0000230BE00D6
:10071800080000302000CF000130D0000030D100A8
:100728000030D2005B08CF025C08D03B5D08D13BAB
:100738005E08D23B5208B3005108B2005008B1001D
:100748004F08B000BE0108000230290628042A0418
:100758002B04031DBA2B20002708B3002608B2007B
:100768002508B1002408B000BE01F72B2000E301E2
:100778002B08031DC82B2A08031DC82B013028028B
:100788000230293B031CE32BFF302000DF0003303D
:10079800E0000030E1000030E2002808DF0229080C
:1007A800E03B2A08E13B2B08E23B6208AB0061080A
:1007B800AA006008A9005F08A800E301E30A760818
:1007C800031DEE2B200063080319F42B8231F52258
:1007D8008331F72B7603031DF72B20006303E82BE7
:1007E8008431B024833185312325833120003B03B4
:1007F800031D172C0230DF000030E0000030E1005C
:100808000030E2003008DF073108E03D3208E13D02
:100818003308E23D6208B3006108B2006008B10025
:100828005F08B000080007303A06031D08000130D1
:10083800DF000030E0000030E1000030E200300866
:10084800DF073108E03D3208E13D3308E23D620848
:10085800B3006108B2006008B1005F08B00008008A
:100868003608AC003708AD00AE01AF012F08C6004E
:100878002E08C5002D08C4002C08C3000030CA008B
:100888000030C9000230C8005830C7008531B9258A
:1008980084314608A3004508A2004408A100430883
:1008A800A0002008CF002108D0002208D10023088A
:1008B800D2000A30D236D10CD00CCF0C890B5E2C6A
:1008C8005208A3005108A2005008A1004F08A00038
:1008D8002108B5002008B40000303502743003192F
:1008E80034020318862C34080C3EA4000030031888
:1008F8000130A500A601A51BA6032608A700013004
:10090800BD00080034088D3ED400FF30353DD500C9
:100918005508D0005408CF000730D036CF0C890BCB
:10092800912C4F08BF003F08CF000630CF35FF3E5F
:10093800031D9A2C4F355407D000D101D201D301A1
:100948005308A7005208A6005108A5005008A400A3
:100958003F08023EBD0008002B08C6002A08C50053
:100968002908C4002808C3000030CA000030C900A4
:100978000030C8001830C7008531B92584310030EF
:100988004307DB001030443DDC000030453DDD000E
:100998000030463DDE005E08C6005D08C5005C0804
:1009A800C4005B08C3000030CF000130D000003025
:1009B800D1000030D2002408CF022508D03B2608F9
:1009C800D13B2708D23B5208CA005108C900500839
:1009D800C8004F08C7008531B92584314308D300C2
:1009E8004408D4004508D5004608D6000E30D6364F
:1009F800D50CD40CD30C890BFB2C5608DA005508FF
:100A0800D9005408D8005308D7000030CF0001306F
:100A1800D0000030D1000030D2005708CF0258086B
:100A2800D03B5908D13B5A08D23B5208B300510871
:100A3800B2005008B1004F08B000BE010800200005
:100A48003E03031D442D86317A2685312000BB00E4
:100A58003B080319322D8631D32608008631DC265F
:100A680020003D08B83E840086300318013E85000A
:100A780000082100950020003D08013EBA0008004A
:100A880003303E06031D622D86317A26853120000B
:100A9800BB003B08031D2F2D8631DC2620003D08B6
:100AA800B93E840086300318013E85000008210005
:100AB800950020003D08023EBA00080002303E06BC
:100AC800031D752D3D08B63E840086300318013E8F
:100AD800850000082100950020003D08FF3EBA006F
:100AE80008003E08031D08003D08B73E8400863014
:100AF8000318013E850000082100950020003D08EC
:100B0800BA000800863114268531F800EE30C3009B
:100B18008630C4008531E82585314408B70043088C
:100B2800B600ED30C3008630C4008531E825853134
:100B38004408B9004308B8003908CC003808CB008D
:100B4800CC36CB0CCC36CB0C4B08B8004C08B900D3
:100B5800EC30C3008630C4008531E8254308A8007E
:100B68004408A900AA01AB0108000030CE000030FB
:100B7800CD000030CC000030CB00431CCB2D470803
:100B8800CB074808CC3D4908CD3D4A08CE3D013049
:100B9800C735C80DC90DCA0D890BCC2D0130C63615
:100BA800C50CC40CC30C890BD32D4608450444045A
:100BB8004304031DC12D4E08C6004D08C5004C084E
:100BC800C4004B08C300080021009D012000430811
:100BD8008400440885000008C5000130C535FF3E83
:100BE800031DF22D4535C80021001D0820004804CA
:100BF80021009D001D140D30890B002E00002100DE
:100C08009D149D18052E1D101C082000C7002100EA
:100C18001B082000C6004708C4004608C300080097
:100C2800EF302000C3008630C4008531E8258631C6
:100C38004408CA004308C90001304A025630031963
:100C480049020318292E0030080002304A02AB304E
:100C5800031949020318322E0130080004304A02F1
:100C68000030031949020318302E02300800F3003F
:100C7800730886008701403FF000413FF100F136DC
:100C8800F00CF136F00C700826009100730886000D
:100C9800870101080339F2007208F0000330F035CB
:100CA800FF3E031D532E7035130493000800863150
:100CB800A22686318631BF2686318631E1268631E5
:100CC8008531862586318431342486318331A823C1
:100CD8008631300895008B17853186258631843119
:100CE800342486318331A8238631702E3D08013E95
:100CF800C300003003180130C4004408803AC5001E
:100D080080304502083003194302031C8D2E013040
:100D180008000030080022009A13911321000C15D6
:100D2800FF3020009B00260013080F389300250091
:100D38009E01200091101C089C0008008631CD26D9
:100D480086318631AE2686318631D826863186317F
:100D58008F2608000F3023008E000F3021008E00F0
:100D680024008E01080007340634053404340334A3
:100D780002340134003491101C15911CC12E9110BD
:100D880021000C110800640080010131890BC82E74
:100D98000034F030210099001F309800080021002D
:100DA8001508083995000800A03021009E000800A9
:100DB800210095010800213400348B160800003406
:100DC800013404340334023401340034003401346F
:080DD80007340634053404342D
:020000040001F9
:04000E00E409FF0FF3
:00000001FF
