:040000008031DD2846
:100008007E14803120002E0895000B1DDB288B13F1
:1000180022008E160B117808031D22287708F40099
:10002800F501F435F50DF730740784000030753D9F
:1000380080388500003FF900013F3C287803031D04
:1000480035287708F400F501F435F50DF930740713
:1000580084000130753D80388500003FF900013F7C
:100068003C2802307806031D3D28FF30F900033094
:10007800FA0080307706031D442801302000BD00B7
:100088007708031D50282000BD017608031D4F285E
:100098000130F6005028F60120003D08031D5928BC
:1000A8000130F4007408F7075B280130F702760383
:1000B800031D6828FF30F4000330F5007908740246
:1000C800F9007A08753BFA00350A3604031D7528CD
:1000D800FF30F4000330F50079087402F9007A085B
:1000E800CF28350836040319D1287908BC007A08C6
:1000F800BB00A201A001031035083C18A207A20CFE
:10010800A00CBC18A207A20CA00C3C19A207A20CB8
:10011800A00CBC19A207A20CA00C3C1AA207A20CA6
:10012800A00CBC1AA207A20CA00C3C1BA207A20C94
:10013800A00CBC1BA207A20CA00CA1013B18A20793
:10014800A20CA10CBB18A207A20CA10C3B19A20778
:10015800A20CA10CBB19A207A20CA10C3B1AA20766
:10016800A20CA10CBB1AA207A20CA10C3B1BA20754
:10017800A20CA10CBB1BA207A20CA10C20005108C9
:10018800860052088700FF30F4000330F500403F36
:100198007402F900413F753BD428FF30F900033061
:1001A800FA0079308531EF2522008E128B177E10E8
:1001B80009008031DF28863174268031D1008631EC
:1001C80075268031D200F601F701F801F901FA012C
:1001D80020308400003085001E3086315C267E1079
:1001E80020008531CF2D0034023404340234083421
:1001F80002340C3402341034023414340234183407
:1002080002341C34023420340234243402342834B6
:1002180002342C3402343034023434340234383466
:1002280002343C3402344034023444340234483416
:1002380002344C34023450340234543402345834C6
:1002480002345C3402346034023464340234683476
:1002580002346C3402347034023474340234783426
:1002680002347C34023480340234843402348834D6
:1002780002348C3402349034023494340234983486
:1002880002349C340234A0340234A4340234A83436
:100298000234AC340234B0340234B4340234B834E6
:1002A8000234BC340234C0340234C4340234C83496
:1002B8000234CC340234D0340234D4340234D83446
:1002C8000234DC340234E0340234E4340234E834F6
:1002D8000234EC340234F0340234F4340234F834A6
:1002E8000234FB340234FF34023403340334073459
:1002F80003340B3403340F34033413340334173406
:1003080003341B3403341F340334233403342734B5
:1003180003342B3403342F34033433340334373465
:1003280003343B3403343F34033443340334473415
:1003380003344B3403344F340334533403345734C5
:1003480003345B3403345F34033463340334673475
:1003580003346B3403346F34033473340334773425
:1003680003347B3403347F340334833403348734D5
:1003780003348B3403348F34033493340334973485
:1003880003349B3403349F340334A3340334A73435
:100398000334AB340334AF340334B3340334B734E5
:1003A8000334BB340334BF340334C3340334C73495
:1003B8000334CB340334CF340334D3340334D73445
:1003C8000334DB340334DF340334E3340334E734F5
:1003D8000334EB340334EF340334F3340334F734A5
:1003E8000334FB340334FF3403340034023406345A
:1003F80002340C34023412340234193402341F34F7
:100408000234253402342B34023432340234383482
:1004180002343E340234443402344B34023451340E
:100428000234573402345D3402346334023469349C
:10043800023470340234763402347C340234823428
:100448000234883402348E340234943402349A34B8
:100458000234A0340234A6340234AC340234B23448
:100468000234B8340234BD340234C3340234C934DB
:100478000234CF340234D5340234DA340234E0346E
:100488000234E5340234EB340234F1340234F63405
:100498000234FC34023401340334063403340C349B
:1004A800033411340334163403341C340334213434
:1004B8000334263403342B340334303403343534D2
:1004C80003343A3403343F34033444340334493472
:1004D80003344E34033452340334573403345C3415
:1004E80003346034033465340334693403346E34BC
:1004F800033472340334763403347A3403347F3467
:10050800033483340334873403348B3403348F3413
:10051800033493340334973403349A3403349E34C5
:100528000334A2340334A5340334A9340334AC347B
:100538000334B0340334B3340334B6340334B93435
:100548000334BD340334C0340334C3340334C634F1
:100558000334C8340334CB340334CE340334D134B5
:100568000334D3340334D6340334D8340334DA347C
:100578000334DD340334DF340334E1340334E33447
:100588000334E5340334E7340334E9340334EB3417
:100598000334EC340334EE340334F0340334F134EC
:1005A8000334F3340334F4340334F5340334F634C5
:1005B8000334F7340334F9340334F9340334FA34A4
:1005C8000334FB340334FC340334FD340334FD3486
:1005D8000334FE340334FE340334FE340334FF346E
:1005E8000334FF340334FF340334FF3403342B085B
:1005F800BE002C08BF002D08C000FD30C100FF3030
:10060800C200FF30C3008531A925823180303E0702
:10061800CA0003303F3DCB000030403DCC004A08C3
:10062800BE004B08BF004C08C0002808003CC100B1
:100638002908031C290F013CC2002A08031C2A0FA1
:10064800003CC3008531A92582313E08C7003F0818
:10065800C8004008C9000930C936C80CC70C890B46
:10066800302B4708CD004808CE004908CF0000309D
:100678004F02031D452B01304E02031D452B01304F
:100688004D02031C692B4D08C7004E08C8004F08CF
:10069800C9000130C936C80CC70C890B4E2B470856
:1006A800CD004808CE004908CF004D08003CAE00F8
:1006B8004E08031C4E0F013CAF004F08031C4F0FA0
:1006C800003CB0000230B90008004D08003CAE0004
:1006D8004E08031C4E0F013CAF004F08031C4F0F80
:1006E800003CB000B90108003308A4003408A50094
:1006F800A601A7012708C1002608C0002508BF00D9
:100708002408BE000030C5000030C4000230C30019
:100718004430C2008531272583314108A3004008B1
:10072800A2003F08A1003E08A0002008CA00210836
:10073800CB002208CC002308CD000A30CD36CC0CE3
:10074800CB0CCA0C890BA22B4D08A3004C08A200A5
:100758004B08A1004A08A0002108B2002008B100F7
:10076800003032027430031931020318CD2B3108DE
:100778000C3ECA00003003180130CB004A08A8001C
:100788004B08A900890D893B8909AA000130B800E6
:10079800080031088D3ECE00FF30323DCF004F08B3
:1007A800CB004E08CA000730CB36CA0C890BD82BB1
:1007B8004A08BA003A08CA000630CA35FF3E031D87
:1007C800E12B4A354E07CB00CC01CD014B08A800E0
:1007D8004C08A9004D08AA003A08023EB8000800D3
:1007E8003903031D102C86310F2683312000C100E8
:1007F80041080319022C86316826080086317126C3
:10080800200038084D3E840086300318013E8500DC
:10081800000821009500080003303906031D2A2C22
:1008280086310F2683312000C2004208031DFF2BAA
:1008380086317126200038084E3E84008630031821
:10084800013E8500000821009500080002303906A5
:10085800031D392C38084B3E840086300318013EAE
:10086800850000082100950008003908031D0800CC
:1008780038084C3E840086300318013E8500000885
:100888002100950008002B08BE002C08BF002D0889
:10089800C0001830C1000030C2000030C3008531EC
:1008A800A925843100303E07CD0004303F3DCE00FD
:1008B8000030403DCF004D08BE004E08BF004F0835
:1008C800C0002808003CC1002908031C290F013C6E
:1008D800C2002A08031C2A0F003CC3008531A92541
:1008E80084313E08C7003F08C8004008C9000C30E2
:1008F800C936C80CC70C890B7C2C4708CA004808A5
:10090800CB004908CC004A08003CAE004B08031C49
:100918004B0F013CAF004C08031C4C0F003CB000CF
:10092800B901080080302B062C042D04031DA52CCA
:1009380020002808AE002908AF002A08B000B90135
:10094800DF2C2000D00100302D02031DB12C003017
:100958002C02031DB12C81302B02031CC22C2B0846
:10096800FF3CAB002C08031C2C0F003CAC002D08EE
:10097800031C2D0F003CAD00D001D00A76080319E6
:1009880050080319DC2C7608031DD12C5003031DD5
:10099800D12C8231FB228431DF2C760303195008D5
:1009A8000319CD2C7603031DDF2C5003031DDF2C08
:1009B8008431472484318331F4230800853182252A
:1009C8008431F8008330BE008630BF00853156255B
:1009D80084313F08B4003E08B3008230BE00863040
:1009E800BF008531562584313F08B6003E08B50062
:1009F8003608C7003508C600C736C60CC736C60C49
:100A08004608B5004708B6008130BE008630BF00F2
:100A18008531562584313E08AB003F08AC00AD0156
:100A28002B08C6002C08C7002D08C8000230C8369D
:100A3800C70CC60C890B1B2D4608AB004708AC0039
:100A48004808AD0008000030C9000030C800003078
:100A5800C7000030C6003E1C392D4208C6074308AF
:100A6800C73D4408C83D4508C93D0130C235C30DDE
:100A7800C40DC50D890B3A2D0130C136C00CBF0C11
:100A8800BE0C890B412D410840043F043E04031D60
:100A98002F2D4908C1004808C0004708BF00460874
:100AA800BE00080021009D0120003E0884003F0888
:100AB80085000008C0000130C035FF3E031D602DD1
:100AC8004035C30021001D082000430421009D007B
:100AD8001D140D30890B6E2D000021009D149D18EA
:100AE800732D1D101C082000C20021001B082000C7
:100AF800C1004208BF004108BE0008008430200041
:100B0800BE008630BF008531562585313F08C500B7
:100B18003E08C40001304502563003194402031848
:100B2800972D0030080002304502AB30031944020B
:100B38000318A02D013008000430450200300319C5
:100B4800440203189E2D023008000030C400003013
:100B5800C5000030C6003E1CB72D4108C407420836
:100B6800C53D4308C63D0130C135C20DC30D890BD3
:100B7800B82D0130C036BF0CBE0C890BBE2D400805
:100B88003F043E04031DAF2D4408BE004508BF00C6
:100B98004608C0000800863137268531863154263C
:100BA80085318631762685318431E2248531833159
:100BB8007823853184319624853120002E089500CC
:100BC8008B178431E2248531833178238531843150
:100BD80096248531E52DF300730886008701403F90
:100BE800F000413FF100F136F00CF136F00C7008DE
:100BF8002600910073088600870101080339F20076
:100C08007208F0000330F035FF3E031D072E7035E3
:100C18001304930008003808013EBE000030031892
:100C28000130BF003F08803AC000803040020830E1
:100C380003193E02031C222E013008000030080070
:100C480022009A13911321000C15FF3020009B00FD
:100C5800260013080F38930025009E0120009110EC
:100C68001C089C000800863162268631863143269E
:100C7800863186316D2686318631242608000F306C
:100C880023008E000F3021008E0024008E01080002
:100C98000734063405340434033402340134003490
:100CA80091101C15911C562E911021000C11080052
:100CB800640080010131890B5D2E0034F030210081
:100CC80099001F3098000800210015080839950080
:100CD8000800A03021009E000800210095010800AE
:100CE800213400348B1608000034013404340334F2
:100CF8000234013400340034013407340634053436
:020D08000434B1
:020000040001F9
:04000E00E409FF0FF3
:00000001FF
