:040000008031D02853
:100008007E1480310B1DCE288B13750820009500B7
:1000180022008E160B117208031D22287108FA009F
:10002800FB01FA35FB0DED307A07840001307B3D8A
:1000380080388500003FF300013F3C287203031D10
:1000480035287108FA00FB01FA35FB0DEF307A0705
:10005800840002307B3D80388500003FF300013F7B
:100068003C2802307206031D3D28FF30F3000330A0
:10007800F40080307106031D442801302000C400BC
:100088007108031D50282000C4014508031D4F288E
:100098000130C5005028C50120004408031D592817
:1000A8000130FA007A08F1075B280130F1024503B4
:1000B800031D6828FF30FA000330FB0073087A023A
:1000C800F30074087B3BF400340835040319C42892
:1000D8007308C7007408C600A201A0010310340801
:1000E8004718A207A20CA00CC718A207A20CA00CC4
:1000F8004719A207A20CA00CC719A207A20CA00CB2
:10010800471AA207A20CA00CC71AA207A20CA00C9F
:10011800471BA207A20CA00CC71BA207A20CA00C8D
:10012800A1014618A207A20CA10CC618A207A20C8E
:10013800A10C4619A207A20CA10CC619A207A20C71
:10014800A10C461AA207A20CA10CC61AA207A20C5F
:10015800A10C461BA207A20CA10CC61BA207A20C4D
:10016800A10C20006108860062088700FF30FA00B1
:100178000330FB00403F7A02F300413F7B3BC72836
:10018800FF30F3000330F400733087314E2722002C
:100198008E128B177E1009008031D2288731D9271B
:1001A8008031E1008731DA278031E200F001F10186
:1001B800F201F301F401F5012030840000308500DC
:1001C80028308731C9277E1020008731002F00345E
:1001D8000134F5340034EA340034E0340034D734E0
:1001E8000034CE340034C5340034BC340034B43464
:1001F8000034AD340034A53400349E3400349834CF
:100208000034913400348B340034853400347F3426
:1002180000347A34003475340034703400346B346C
:10022800003466340034623400345E3400345A34A6
:10023800003456340034523400344F3400344B34D4
:1002480000344834003445340034423400343F34F8
:1002580000343C3400343A34003437340034353414
:10026800003433340034303400342E3400342C3429
:1002780000342A3400342934003427340034253437
:1002880000342334003422340034203400341F3442
:1002980000341E3400341C3400341B3400341A3447
:1002A8000034193400341834003417340034163448
:1002B8000034153400341434003413340034123448
:1002C80000341134003410340034103400340F3446
:1002D80000340E3400340E3400340D3400340C3441
:1002E80000340C3400340B3400340B3400340A343A
:1002F80000340A3400340934003409340034093431
:100308000034083400340834003407340034073427
:10031800003407340034063400340634003406341C
:100328000034053400340534003405340034053411
:100338000034043400340434003404340034043405
:1003480000340434003403340034033400340334F8
:1003580000340334003403340034033400340234EA
:1003680000340234003402340034023400340234DD
:1003780000340234003402340034013400340134CF
:1003880000340134003401340034013400340134C1
:1003980000340134003401340034013400340134B1
:1003A80000340134003401340034003400340034A3
:1003B8000034003400340034003400340034003495
:1003C8000034003400340034003400340034003485
:1003D80000340034023404340234083402340C3457
:1003E80002341034023414340234183402341C3405
:1003F80002342034023424340234283402342C34B5
:1004080002343034023434340234383402343C3464
:1004180002344034023444340234483402344C3414
:1004280002345034023454340234583402345C34C4
:1004380002346034023464340234683402346C3474
:1004480002347034023474340234783402347C3424
:1004580002348034023484340234883402348C34D4
:1004680002349034023494340234983402349C3484
:100478000234A0340234A4340234A8340234AC3434
:100488000234B0340234B4340234B8340234BC34E4
:100498000234C0340234C4340234C8340234CC3494
:1004A8000234D0340234D4340234D8340234DC3444
:1004B8000234E0340234E4340234E8340234EC34F4
:1004C8000234F0340234F4340234F8340234FB34A5
:1004D8000234FF34023403340334073403340B3456
:1004E80003340F34033413340334173403341B3404
:1004F80003341F34033423340334273403342B34B4
:1005080003342F34033433340334373403343B3463
:1005180003343F34033443340334473403344B3413
:1005280003344F34033453340334573403345B34C3
:1005380003345F34033463340334673403346B3473
:1005480003346F34033473340334773403347B3423
:1005580003347F34033483340334873403348B34D3
:1005680003348F34033493340334973403349B3483
:1005780003349F340334A3340334A7340334AB3433
:100588000334AF340334B3340334B7340334BB34E3
:100598000334BF340334C3340334C7340334CB3493
:1005A8000334CF340334D3340334D7340334DB3443
:1005B8000334DF340334E3340334E7340334EB34F3
:1005C8000334EF340334F3340334F7340334FB34A3
:1005D8000334FF34033400340234063402340C3458
:1005E800023412340234193402341F3402342534EC
:1005F80002342B34023432340234383402343E3478
:100608000234443402344B34023451340234573403
:1006180002345D3402346334023469340234703491
:100628000234763402347C3402348234023488341E
:1006380002348E340234943402349A340234A034AE
:100648000234A6340234AC340234B2340234B8343E
:100658000234BD340234C3340234C9340234CF34D2
:100668000234D5340234DA340234E0340234E53466
:100678000234EB340234F1340234F6340234FC34FC
:10068800023401340334063403340C340334113493
:100698000334163403341C3403342134033426342D
:1006A80003342B34033430340334353403343A34CC
:1006B80003343F34033444340334493403344E346C
:1006C800033452340334573403345C340334603411
:1006D800033465340334693403346E3403347234B8
:1006E8000334763403347A3403347F340334833464
:1006F8000334873403348B3403348F340334933412
:100708000334973403349A3403349E340334A234C4
:100718000334A5340334A9340334AC340334B0347B
:100728000334B3340334B6340334B9340334BD3436
:100738000334C0340334C3340334C6340334C834F4
:100748000334CB340334CE340334D1340334D334B8
:100758000334D6340334D8340334DA340334DD3480
:100768000334DF340334E1340334E3340334E5344D
:100778000334E7340334E9340334EB340334EC341E
:100788000334EE340334F0340334F1340334F334F3
:100798000334F4340334F5340334F6340334F734CF
:1007A8000334F9340334F9340334FA340334FB34AE
:1007B8000334FC340334FD340334FD340334FE3491
:1007C8000334FE340334FE340334FF340334FF347B
:1007D8000334FF340334FF3403342308CB002208E6
:1007E800CA002108C9002008C8000030CF00003026
:1007F800CE00BB30CD003630CC008631A526833103
:100808004808D4004908D5004A08D6004B08D70044
:100818001030D736D60CD50CD40C890B0D2C5508B6
:10082800D9005408D80040085807D40059080318BC
:10083800590AD500003055028030031954020318B4
:100848002C2C5808C3000130C200C101BF010800A8
:1008580040085807D40059080318590AD5008030B1
:1008680054065504031D402CC3010430C200013056
:10087800C1000130BF00080040085807D4005908DB
:100888000318590AD5000030550281300319540263
:10089800031C080040085807D40059080318590ACF
:1008A800D5005408803EDA00FF30553DDB005B0878
:1008B800D5005A08D4000730D536D40C890B602CE3
:1008C80054085504031D712C5A08C3000130C20096
:1008D8000130C1000130BF0008005B08D5005A088C
:1008E800D4000730D536D40C890B762C5403550424
:1008F800031D08005A08803EDA00FF305B3DDB002C
:100908005A08C3000130C20003303C2C6134613402
:10091800613461346034603460346034603460342D
:100928005F345F345F345F345F345F345E345E3429
:100938005E345E345E345D345D345D345D345D3424
:100948005D345C345C345C345C345C345B345B3420
:100958005B345B345A345A345A345A345A3459341E
:10096800593459345934583458345834583457341D
:10097800573457345734563456345634563455341D
:10098800553455345534543454345434533453341E
:100998005334523452345234513451345134503423
:1009A800503450344F344F344E344E344E344D342A
:1009B8004D344C344C344C344B344B344A344A3434
:1009C8004934493448344834473446344634453445
:1009D80045344434433443344234413440343F345E
:1009E8003F343E343D343C343B343A343934373484
:1009F800363435343334323430342E342C342A34CB
:100A08002734243420341C3416340E340034380887
:100A1800A8003908A900AA01AB012B08CB002A08B5
:100A2800CA002908C9002808C8000030CF000030D3
:100A3800CE000230CD005830CC008631A526853155
:100A48004B08AF004A08AE004908AD004808AC00A2
:100A58002C08D4002D08D5002E08D6002F08D70062
:100A68000A30D736D60CD50CD40C890B352D57083F
:100A7800AF005608AE005508AD005408AC002D086C
:100A8800BD002C08BC0000303D02743003193C0244
:100A98000318542D3C080C3EC0000130F00008003B
:100AA8003C088D3ED800FF303D3DD9005908D5009F
:100AB8005808D4000730D536D40C890B5F2D54085C
:100AC800D600D7015608BA005708BB003A08D40028
:100AD8000630D435FF3E031D6D2D54355807C00030
:100AE8003A08023EF0000800803032063304031D45
:100AF800832DC3010130C200C101BF010800E0011C
:100B080000303302813003193202031C962DFF3066
:100B1800DC0032085C02B20033090318890AB3000A
:100B2800E001E00A8030DC0032085C02C8003309CA
:100B38000318890AC9006930CA000130CB0087311F
:100B48006E2785314908DF004808DE005F08DD00B0
:100B58005E08DC000730DD36DC0C890BAF2D5C0845
:100B6800A0005D08A100A201A3014508031DC22D34
:100B78006008031DC22D8331F12308004508031DB9
:100B8800CF2D60030319CC2DCF2D6008031DD22D66
:100B980086312626080045030319C92D4503031D80
:100BA80008006003031D0800BF2D3F08031DC00196
:100BB80042030319E32D04304206031DE62D4008C5
:100BC8004307EB2D4208031DEC2D43084002F500B6
:100BD8004103031DFA2D7008B23E840087300318C4
:100BE800013E8500000821009500080003304106F9
:100BF800031D092E7008B33E840087300318013E98
:100C08008500000821009500080002304106031DF8
:100C1800182E7008B03E840087300318013E850006
:100C280000082100950008004108031D080070080D
:100C3800B13E840087300318013E8500000821007A
:100C4800950008002308CB002208CA002108C90023
:100C58002008C8000030CF000030CE004430CD005E
:100C6800C930CC008631A52686314808D400490809
:100C7800D5004A08D6004B08D7001030D736D60C16
:100C8800D50CD40C890B422E5508D9005408D8002D
:100C98004008D400D50159085502031D552E58089F
:100CA80054020318622E58084002803EC3000130E7
:100CB800C2000230C1000130BF0008005808C3005C
:100CC800C201C101BF010800873127278631F20020
:100CD800E830C8008730C9008631D42686314908F3
:100CE800B9004808B800E730C8008730C900863125
:100CF800D42686314908B5004808B4003508D10023
:100D08003408D000D136D00CD136D00C5008B400FD
:100D18005108B500E630C8008730C9008631D426AE
:100D28004908B3004808B2003308D1003208D0009F
:100D3800D136D00CD136D00C5008B2005108B300CF
:100D480008000030D3000030D2000030D10000305D
:100D5800D000481CB72E4C08D0074D08D13D4E088E
:100D6800D23D4F08D33D0130CC35CD0DCE0DCF0D42
:100D7800890BB82E0130CB36CA0CC90CC80C890BAC
:100D8800BF2E4B084A0449044804031DAD2E5308DE
:100D9800CB005208CA005108C9005008C800080012
:100DA80021009D01200048088400490885000008AA
:100DB800CA000130CA35FF3E031DDE2E4A35CD007C
:100DC80021001D0820004D0421009D001D140D3038
:100DD800890BEC2E000021009D149D18F12E1D108A
:100DE8001C082000CC0021001B082000CB004C0868
:100DF800C9004B08C800080087319C278731873114
:100E0800B92787318731DB278731863168268731D3
:100E180085310B2587318531782587318531D9256D
:100E2800873175308731C12787318B17863168261E
:100E3800873185310B258731853178258731853193
:100E4800D92587311A2FE9302000C8008730C9001A
:100E58008631D42687314908CF004808CE000130B2
:100E68004F02563003194E0203183C2F0030080079
:100E780002304F02AB3003194E020318452F0130E0
:100E8800080004304F02003003194E020318432FA4
:100E980002300800F900790886008701403FF60013
:100EA800413FF700F736F60CF736F60C76082600C1
:100EB800910079088600870101080339F80078084D
:100EC800F6000330F635FF3E031D662F7635130412
:100ED80093000800CC01CD01481C762F4A08CC07A6
:100EE8004B08CD3D0130CA35CB0D890B772F01302A
:100EF800C936C80C890B7C2F48084904031D702F7C
:100F08004D08C9004C08C800080022009A13911324
:100F180021000C15FF3020009B00260013080F3815
:100F2800930025009E01200091101C089C000800D9
:100F38008731CF2787318731A82787318731D52750
:100F480087318731892708000F3023008E000F3042
:100F580021008E0024008E01080007340634053471
:100F68000434033402340134003491101C15911CEC
:100F7800BB2F911021000C1108002000C800480860
:100F8800860087010108950008006400800101318E
:100F9800890BCA2F0034F030210099001F309800C7
:100FA8000800A03021009E000800213400348B1670
:100FB80008000034013404340334023401340034AA
:0C0FC800003401340734063405340434CE
:020000040001F9
:04000E00E409FF0FF3
:00000001FF
