:040000008031CE2855
:100008007E1480310B1DCC288B13200043089500EB
:1000180022008E160B1120003E08031D23287508A8
:10002800FA00FB01FA35FB0DEB307A07840001304A
:100038007B3D80388500003FC100013F3D283E03DD
:10004800031D36287508FA00FB01FA35FB0DED3063
:100058007A07840002307B3D80388500003FC1006C
:10006800013F3D2802303E06031D3E28FF30C100F7
:100078000330C20080307506031D44280130BC00DF
:100088007508031D4F28BC013D08031D4E2801308B
:10009800BD004F28BD013C08031D57280130FA0058
:1000A8007A08F50759280130F5023D03031D662833
:1000B800FF30FA000330FB0041087A02C100420811
:1000C8007B3BC2002E082F040319C2284108C00038
:1000D8004208BF00A201A00103102E084018A20781
:1000E800A20CA00CC018A207A20CA00C4019A207D1
:1000F800A20CA00CC019A207A20CA00C401AA207BF
:10010800A20CA00CC01AA207A20CA00C401BA207AC
:10011800A20CA00CC01BA207A20CA00CA1013F18A6
:10012800A207A20CA10CBF18A207A20CA10C3F1990
:10013800A207A20CA10CBF19A207A20CA10C3F1A7E
:10014800A207A20CA10CBF1AA207A20CA10C3F1B6C
:10015800A207A20CA10CBF1BA207A20CA10C200095
:100168005608860057088700FF30FA000330FB0066
:10017800403F7A02C100413F7B3BC528FF30C100A8
:100188000330C20041308731072722008E128B17B7
:100198007E1009008031D028873192278031D6001F
:1001A800873193278031D700F001F101F201F30183
:1001B800F401F501203084000030850024308731B7
:1001C80082277E1020008631B92E00340134F534A0
:1001D8000034EA340034E0340034D7340034CE3408
:1001E8000034C5340034BC340034B4340034AD3485
:1001F8000034A53400349E340034983400349134EB
:1002080000348B340034853400347F3400347A343D
:10021800003475340034703400346B340034663480
:100228000034623400345E3400345A3400345634B6
:100238000034523400344F3400344B3400344834E2
:10024800003445340034423400343F3400343C3404
:1002580000343A340034373400343534003433341D
:100268000034303400342E3400342C3400342A3432
:10027800003429340034273400342534003423343E
:10028800003422340034203400341F3400341E3447
:1002980000341C3400341B3400341A34003419344C
:1002A800003418340034173400341634003415344C
:1002B800003414340034133400341234003411344C
:1002C800003410340034103400340F3400340E3449
:1002D80000340E3400340D3400340C3400340C3443
:1002E80000340B3400340B3400340A3400340A343C
:1002F8000034093400340934003409340034083433
:100308000034083400340734003407340034073428
:10031800003406340034063400340634003405341E
:100328000034053400340534003405340034043412
:100338000034043400340434003404340034043405
:1003480000340334003403340034033400340334F9
:1003580000340334003403340034023400340234EB
:1003680000340234003402340034023400340234DD
:1003780000340234003401340034013400340134D0
:1003880000340134003401340034013400340134C1
:1003980000340134003401340034013400340134B1
:1003A80000340134003400340034003400340034A4
:1003B8000034003400340034003400340034003495
:1003C8000034003400340034003400340034003485
:1003D800023404340234083402340C340234103445
:1003E800023414340234183402341C3402342034F5
:1003F800023424340234283402342C3402343034A5
:10040800023434340234383402343C340234403454
:10041800023444340234483402344C340234503404
:10042800023454340234583402345C3402346034B4
:10043800023464340234683402346C340234703464
:10044800023474340234783402347C340234803414
:10045800023484340234883402348C3402349034C4
:10046800023494340234983402349C340234A03474
:100478000234A4340234A8340234AC340234B03424
:100488000234B4340234B8340234BC340234C034D4
:100498000234C4340234C8340234CC340234D03484
:1004A8000234D4340234D8340234DC340234E03434
:1004B8000234E4340234E8340234EC340234F034E4
:1004C8000234F4340234F8340234FB340234FF3496
:1004D800023403340334073403340B3403340F3445
:1004E800033413340334173403341B3403341F34F4
:1004F800033423340334273403342B3403342F34A4
:10050800033433340334373403343B3403343F3453
:10051800033443340334473403344B3403344F3403
:10052800033453340334573403345B3403345F34B3
:10053800033463340334673403346B3403346F3463
:10054800033473340334773403347B3403347F3413
:10055800033483340334873403348B3403348F34C3
:10056800033493340334973403349B3403349F3473
:100578000334A3340334A7340334AB340334AF3423
:100588000334B3340334B7340334BB340334BF34D3
:100598000334C3340334C7340334CB340334CF3483
:1005A8000334D3340334D7340334DB340334DF3433
:1005B8000334E3340334E7340334EB340334EF34E3
:1005C8000334F3340334F7340334FB340334FF3493
:1005D800033400340234063402340C340234123446
:1005E8000234193402341F340234253402342B34D3
:1005F800023432340234383402343E34023444345F
:1006080002344B34023451340234573402345D34EA
:100618000234633402346934023470340234763478
:1006280002347C34023482340234883402348E3406
:100638000234943402349A340234A0340234A63496
:100648000234AC340234B2340234B8340234BD3427
:100658000234C3340234C9340234CF340234D534BA
:100668000234DA340234E0340234E5340234EB3450
:100678000234F1340234F6340234FC3402340134E6
:100688000334063403340C3403341134033416347D
:1006980003341C34033421340334263403342B3418
:1006A800033430340334353403343A3403343F34B8
:1006B800033444340334493403344E340334523459
:1006C8000334573403345C340334603403346534FE
:1006D8000334693403346E340334723403347634A7
:1006E80003347A3403347F34033483340334873453
:1006F80003348B3403348F34033493340334973402
:1007080003349A3403349E340334A2340334A534B6
:100718000334A9340334AC340334B0340334B3346D
:100728000334B6340334B9340334BD340334C03429
:100738000334C3340334C6340334C8340334CB34E9
:100748000334CE340334D1340334D3340334D634AD
:100758000334D8340334DA340334DD340334DF3477
:100768000334E1340334E3340334E5340334E73445
:100778000334E9340334EB340334EC340334EE3417
:100788000334F0340334F1340334F3340334F434ED
:100798000334F5340334F6340334F7340334F934CA
:1007A8000334F9340334FA340334FB340334FC34AB
:1007B8000334FD340334FD340334FE340334FE348F
:1007C8000334FE340334FF340334FF340334FF347A
:1007D8000334FF3403346134613461346134603488
:1007E800603460346034603460345F345F345F3464
:1007F8005F345F345F345E345E345E345E345E345E
:100808005D345D345D345D345D345D345C345C345A
:100818005C345C345C345B345B345B345B345A3456
:100828005A345A345A345A34593459345934593454
:100838005834583458345834573457345734573454
:100848005634563456345634553455345534553454
:100858005434543454345334533453345234523457
:1008680052345134513451345034503450344F345C
:100878004F344E344E344E344D344D344C344C3465
:100888004C344B344B344A344A3449344934483470
:100898004834473446344634453445344434433484
:1008A80043344234413440343F343F343E343D34A1
:1008B8003C343B343A3439343734363435343334D1
:1008C800323430342E342C342A342734243420342F
:1008D8001C3416340E3400348030C4002C08440212
:1008E800C5002D090318890AC6004535F000460DD4
:1008F800F10073087007C40071080318710AC50075
:10090800003045028030031944020318922C700805
:10091800BB000130BA00F401B90108007308700780
:10092800C40071080318710AC500803044064504E4
:10093800031DA62CBB010430BA000130F4000130BD
:10094800B900080073087007C40071080318710A19
:10095800C50000304502813003194402031C080019
:1009680073087007C40071080318710AC5004408A9
:10097800803EC700FF30453DC8004808C50047080D
:10098800C4000730C536C40C890BC62C440845047E
:10099800031DD72C4708BB000130BA000130F40012
:1009A8000130B90008004808C5004708C4000730EE
:1009B800C536C40C890BDC2C44034504031D080010
:1009C8004708803EC700FF30483DC8004708BB00C5
:1009D8000130BA000330A22C3208A4003308A50065
:1009E800A601A7012708C7002608C6002508C500D4
:1009F8002408C4000030CB000030CA000230C9000F
:100A08005830C80086315E2684314708AB00460856
:100A1800AA004508A9004408A8002808D000290809
:100A2800D1002A08D2002B08D3000A30D336D20CC2
:100A3800D10CD00C890B1A2D5308AB005208AA0010
:100A48005108A9005008A8002908B7002808B600CE
:100A5800003037027430031936020318392D36086E
:100A68000C3EF3000130F200080036088D3ED40039
:100A7800FF30373DD5005508D1005408D000073065
:100A8800D136D00C890B442D5008D200D30152081E
:100A9800B4005308B5003408D0000630D035FF3E06
:100AA800031D522D50355407F3003408023EF2005E
:100AB80008003908031DF3013A030319672D0430B0
:100AC8003A06031D6A2D73083B076F2D3A08031D6C
:100AD800702D3B087302C3007403031D7E2D72083A
:100AE8006B3E840087300318013E85000008210012
:100AF8009500080003307406031D8D2D72086C3EA6
:100B0800840087300318013E850000082100950005
:100B1800080002307406031D9C2D7208693E84008B
:100B280087300318013E8500000821009500080061
:100B38007408031D080072086A3E84008730031891
:100B4800013E8500000821009500080080302C0631
:100B58002D04031DB52DBB010130BA00F401B90104
:100B68000800CE0100302D02813003192C02031C2D
:100B7800C82DFF30CD002C084D02AC002D090318FC
:100B8800890AAD00CE01CE0A3D08031DD12D4E08BD
:100B9800031DD12D8431702408003D08031DDE2D6E
:100BA8004E030319DB2DDE2D4E08031DE12D863182
:100BB800252608003D030319D82D3D03031D080011
:100BC8004E03031D0800CE2D8631E0268531BE0078
:100BD800A130C4008730C50086318D26853145088F
:100BE800B3004408B200A030C4008730C500863185
:100BF8008D2685314508AF004408AE002F08CD008A
:100C08002E08CC00CD36CC0CCD36CC0C4C08AE0022
:100C18004D08AF009F30C4008730C50086318D264F
:100C28004508AD004408AC002D08CD002C08CC00C8
:100C3800CD36CC0CCD36CC0C4C08AC004D08AD00F4
:100C480008002D08C5002C08C4006130C60000301B
:100C5800C7008731272786314408CA004508CB00DA
:100C68000730CB36CA0C890B352E6130CC004A08C8
:100C78004C02F0004B090318890AF1007308CA00F6
:100C8800CB0171084B02031D4B2E70084A02031852
:100C9800582E70087302803EBB000130BA00023043
:100CA800F4000130B90008007008BB00BA01F40173
:100CB800B90108000030CF000030CE000030CD0070
:100CC8000030CC00441C702E4808CC074908CD3DA4
:100CD8004A08CE3D4B08CF3D0130C835C90DCA0D75
:100CE800CB0D890B712E0130C736C60CC50CC40C50
:100CF800890B782E4708460445044404031D662ED4
:100D08004F08C7004E08C6004D08C5004C08C4006F
:100D1800080021009D012000440884004508850042
:100D28000008C6000130C635FF3E031D972E463524
:100D3800C90021001D082000490421009D001D1440
:100D48000D30890BA52E000021009D149D18AA2E98
:100D58001D101C082000C80021001B082000C70027
:100D68004808C5004708C400080087315527863160
:100D78008731722786318731942786318531E82576
:100D880086318431F02486318531AA258631853132
:100D98005D258631433087317A2786318B17853137
:100DA800E82586318431F02486318531AA258631BB
:100DB80085315D258631D32EA2302000C4008730CE
:100DC800C50086318D2686314508CB004408CA0007
:100DD80001304B02563003194A020318F52E003031
:100DE800080002304B02AB3003194A020318FE2EEA
:100DF8000130080004304B02003003194A0203187E
:100E0800FC2E02300800F900790886008701403F6F
:100E1800F600413FF700F736F60CF736F60C760881
:100E28002600910079088600870101080339F80037
:100E38007808F6000330F635FF3E031D1F2F763580
:100E4800130493000800C801C901441C2F2F460849
:100E5800C8074708C93D0130C635C70D890B302F73
:100E68000130C536C40C890B352F44084504031DD1
:100E7800292F4908C5004808C400080022009A1311
:100E8800911321000C15FF3020009B002600130849
:100E98000F38930025009E01200091101C089C002B
:100EA8000800873188278731873161278731873163
:100EB8008E2787318731422708000F3023008E00A4
:100EC8000F3021008E0024008E01080007340634FC
:100ED80005340434033402340134003491101C15F1
:100EE800911C742F911021000C1108002000C400DF
:100EF8004408860087010108950008006400800105
:100F08000131890B832F0034F030210099001F3004
:100F180098000800A03021009E0008002134003409
:100F28008B160800003401340434033402340134CD
:0E0F3800003400340134073406340534043428
:020000040001F9
:04000E00E409FF0FF3
:00000001FF
