:040000008031D32850
:100008007E1480310B1DD1288B13200045089500E4
:1000180022008E160B117508031D23287408FA0098
:10002800FB01FA35FB0DEE307A07840000307B3D8A
:1000380080388500003F2000C300013F3F2875033A
:10004800031D37287408FA00FB01FA35FB0DF03060
:100058007A07840001307B3D80388500003F20000E
:10006800C300013F3F2802307506031D4028FF30BA
:100078002000C3000330C40080307406031D4728E5
:1000880001302000BF007408031D53282000BF0161
:100098004008031D52280130C0005328C001200029
:1000A8003F08031D5C280130FA007A08F4075E282F
:1000B8000130F4024003031D6B28FF30FA000330BF
:1000C800FB0043087A02C30044087B3BC4002E08A7
:1000D8002F040319C7284308C2004408C100A2011D
:1000E800A00103102E084218A207A20CA00CC218E7
:1000F800A207A20CA00C4219A207A20CA00CC219BC
:10010800A207A20CA00C421AA207A20CA00CC21AA9
:10011800A207A20CA00C421BA207A20CA00CC21B97
:10012800A207A20CA00CA1014118A207A20CA10CC5
:10013800C118A207A20CA10C4119A207A20CA10C7C
:10014800C119A207A20CA10C411AA207A20CA10C6A
:10015800C11AA207A20CA10C411BA207A20CA10C58
:10016800C11BA207A20CA10C200056088600570844
:100178008700FF30FA000330FB00403F7A02C300DB
:10018800413F7B3BCA28FF30C3000330C4004330E3
:100198008531862522008E128B177E10090080314A
:1001A800D528863111268031D60086311226803135
:1001B800D700F001F101F201F301F401F50120305B
:1001C8008400003085002630863101267E1020000C
:1001D8008531382D003402340434023408340234B2
:1001E8000C34023410340234143402341834023417
:1001F8001C340234203402342434023428340234C7
:100208002C34023430340234343402343834023476
:100218003C34023440340234443402344834023426
:100228004C340234503402345434023458340234D6
:100238005C34023460340234643402346834023486
:100248006C34023470340234743402347834023436
:100258007C340234803402348434023488340234E6
:100268008C34023490340234943402349834023496
:100278009C340234A0340234A4340234A834023446
:10028800AC340234B0340234B4340234B8340234F6
:10029800BC340234C0340234C4340234C8340234A6
:1002A800CC340234D0340234D4340234D834023456
:1002B800DC340234E0340234E4340234E834023406
:1002C800EC340234F0340234F4340234F8340234B6
:1002D800FB340234FF340234033403340734033468
:1002E8000B3403340F340334133403341734033416
:1002F8001B3403341F3403342334033427340334C6
:100308002B3403342F340334333403343734033475
:100318003B3403343F340334433403344734033425
:100328004B3403344F3403345334033457340334D5
:100338005B3403345F340334633403346734033485
:100348006B3403346F340334733403347734033435
:100358007B3403347F3403348334033487340334E5
:100368008B3403348F340334933403349734033495
:100378009B3403349F340334A3340334A734033445
:10038800AB340334AF340334B3340334B7340334F5
:10039800BB340334BF340334C3340334C7340334A5
:1003A800CB340334CF340334D3340334D734033455
:1003B800DB340334DF340334E3340334E734033405
:1003C800EB340334EF340334F3340334F7340334B5
:1003D800FB340334FF34033400340234063402346B
:1003E8000C34023412340234193402341F34023407
:1003F800253402342B340234323402343834023493
:100408003E340234443402344B340234513402341E
:10041800573402345D3402346334023469340234AC
:1004280070340234763402347C3402348234023438
:10043800883402348E340234943402349A340234C8
:10044800A0340234A6340234AC340234B234023458
:10045800B8340234BD340234C3340234C9340234EB
:10046800CF340234D5340234DA340234E03402347E
:10047800E5340234EB340234F1340234F634023415
:10048800FC34023401340334063403340C340334AA
:1004980011340334163403341C3403342134033444
:1004A800263403342B3403343034033435340334E2
:1004B8003A3403343F340334443403344934033482
:1004C8004E34033452340334573403345C34033425
:1004D8006034033465340334693403346E340334CC
:1004E80072340334763403347A3403347F34033477
:1004F80083340334873403348B3403348F34033424
:1005080093340334973403349A3403349E340334D5
:10051800A2340334A5340334A9340334AC3403348B
:10052800B0340334B3340334B6340334B934033445
:10053800BD340334C0340334C3340334C634033401
:10054800C8340334CB340334CE340334D1340334C5
:10055800D3340334D6340334D8340334DA3403348C
:10056800DD340334DF340334E1340334E334033457
:10057800E5340334E7340334E9340334EB34033427
:10058800EC340334EE340334F0340334F1340334FC
:10059800F3340334F4340334F5340334F6340334D5
:1005A800F7340334F9340334F9340334FA340334B4
:1005B800FB340334FC340334FD340334FD34033496
:1005C800FE340334FE340334FE340334FF3403347E
:1005D800FF340334FF340334FF3403348030C6005F
:1005E8002C084602C7002D090318890AC800473598
:1005F800F000480DF10072087007C6007108031872
:10060800710AC700003047028030031946020318F8
:10061800142B7008BE000130BD00F301BB010800B7
:1006280072087007C60071080318710AC700803085
:1006380046064704031D282BBE010430BD000130C7
:10064800F3000130BB00080072087007C60071088B
:100658000318710AC70000304702813003194602A7
:10066800031C080072087007C60071080318710A95
:10067800C7004608803EC900FF30473DCA004A0807
:10068800C7004908C6000730C736C60C890B482B77
:1006980046084704031D592B4908BE000130BD0018
:1006A8000130F3000130BB0008004A08C7004908C0
:1006B800C6000730C736C60C890B5E2B46034704B5
:1006C800031D08004908803EC900FF304A3DCA00A2
:1006D8004908BE000130BD000330242B3208A400B5
:1006E8003308A500A601A7012708C9002608C800E5
:1006F8002508C7002408C6000030CD000030CC0013
:100708000230CB005830CA008431DD2483314908D7
:10071800AB004808AA004708A9004608A80028080E
:10072800D2002908D3002A08D4002B08D5000A30A3
:10073800D536D40CD30CD20C890B9C2B5508AB00A6
:100748005408AA005308A9005208A8002908B900AB
:100758002808B80000303902743003193802031829
:10076800BB2B38080C3EF2000130BC0008003808EA
:100778008D3EB600FF30393DB7003708D300360844
:10078800D2000730D336D20C890BC62B5208B400DE
:100798005308B5003408D2000630D235FF3E031D99
:1007A800D12B52353607F2003408023EBC0008004F
:1007B8003B08031DF2013D030319E62B04303D06F7
:1007C800031DE92B72083E07EE2B3D08031DEF2B96
:1007D8003E087202C5007303031DFD2B3C08EA3E68
:1007E800840085300318013E85000008210095002B
:1007F800080003307306031D0C2C3C08EB3E8400F4
:1008080085300318013E8500000821009500080086
:1008180002307306031D1B2C3C08E83E840085301B
:100828000318013E850000082100950008007308A0
:10083800031D08003C08E93E840085300318013E8A
:100848008500000821009500080080302C062D0442
:10085800031D342CBE010130BD00F301BB010800AB
:10086800D00100302D02813003192C02031C472CC3
:10087800FF30CF002C084F02AC002D090318890A5D
:10088800AD00D001D00A4008031D502C5008031DAC
:10089800502C8231F22208004008031D5D2C5003C1
:1008A80003195A2C5D2C5008031D602C8431A42494
:1008B800080040030319572C4003031D0800500388
:1008C800031D08004D2C85315F258431F500223049
:1008D800C6008630C70085310C2584314708B3002F
:1008E8004608B2002130C6008630C70085310C2585
:1008F80084314708AF004608AE002F08CF002E0805
:10090800CE00CF36CE0CCF36CE0C4E08AE004F08F8
:10091800AF002030C6008630C70085310C25470857
:10092800AD004608AC002D08CF002C08CE00CF360D
:10093800CE0CCF36CE0C4E08AC004F08AD000800E8
:100948002D08C7002C08C6006130C8000030C90057
:100958008531A62584314608CC004708CD000730EC
:10096800CD36CC0C890BB42C6130CE004C084E022D
:10097800F0004D090318890AF1007208CC00CD0176
:1009880071084D02031DCA2C70084C020318D72C9D
:1009980070087202803EBE000130BD000230F300D4
:1009A8000130BB0008007008BE00BD01F301BB01A7
:1009B80008000030D1000030D0000030CF000030F7
:1009C800CE00461CEF2C4A08CE074B08CF3D4C08FA
:1009D800D03D4D08D13D0130CA35CB0DCC0DCD0DE4
:1009E800890BF02C0130C936C80CC70CC60C890B12
:1009F800F72C4908480447044604031DE52C510810
:100A0800C9005008C8004F08C7004E08C6000800B3
:100A180021009D0120004608840047088500000841
:100A2800C8000130C835FF3E031D162D4835CB00E0
:100A380021001D0820004B0421009D001D140D30CD
:100A4800890B242D000021009D149D18292D1D10AF
:100A58001C082000CA0021001B082000C9004A0801
:100A6800C7004908C60008008531D425853185317D
:100A7800F125853186311326853184316724853106
:100A88008331722385318431292485318331DC23F4
:100A9800853145308531F92585318B1784316724B7
:100AA800853183317223853184312924853183311D
:100AB800DC238531522D23302000C6008630C70044
:100AC80085310C2585314708CD004608CC0001301A
:100AD8004D02563003194C020318742D00300800DB
:100AE80002304D02AB3003194C0203187D2D013042
:100AF800080004304D02003003194C0203187B2D06
:100B080002300800F900790886008701403FF600A6
:100B1800413FF700F736F60CF736F60C7608260054
:100B2800910079088600870101080339F8007808E0
:100B3800F6000330F635FF3E031D9E2D763513046F
:100B480093000800CA01CB01461CAE2D4808CA070D
:100B58004908CB3D0130C835C90D890BAF2D01308F
:100B6800C736C60C890BB42D46084704031DA82DAB
:100B78004B08C7004A08C600080022009A139113C0
:100B880021000C15FF3020009B00260013080F38A9
:100B9800930025009E01200091101C089C0008006D
:100BA8008631072685318531E025853186310D2648
:100BB80085318531C12508000F3023008E000F30A4
:100BC80021008E0024008E01080007340634053405
:100BD8000434033402340134003491101C15911C80
:100BE800F32D911021000C1108002000C6004608C2
:100BF8008600870101089500080064008001013122
:100C0800890B022E0034F030210099001F30980023
:100C18000800A03021009E000800213400348B1603
:100C2800080001340034003401340434033402343D
:100C380001340034003401340734063405340434F4
:020000040001F9
:04000E00E409FF0FF3
:00000001FF
