:040000008031D32850
:100008007E1480310B1DD1288B13200041089500E8
:1000180022008E160B117508031D23287408FA0098
:10002800FB01FA35FB0DEE307A07840000307B3D8A
:1000380080388500003F2000BF00013F3F2875033E
:10004800031D37287408FA00FB01FA35FB0DF03060
:100058007A07840001307B3D80388500003F20000E
:10006800BF00013F3F2802307506031D4028FF30BE
:100078002000BF000330C00080307406031D4728ED
:1000880001302000BC007408031D53282000BC0167
:100098007308031D52280130F3005328F301200090
:1000A8003C08031D5C280130FA007A08F4075E2832
:1000B8000130F4027303031D6B28FF30FA0003308C
:1000C800FB003F087A02BF0040087B3BC0002E08B7
:1000D8002F040319C7283F08BE004008BD00A2012D
:1000E800A00103102E083E18A207A20CA00CBE18EF
:1000F800A207A20CA00C3E19A207A20CA00CBE19C4
:10010800A207A20CA00C3E1AA207A20CA00CBE1AB1
:10011800A207A20CA00C3E1BA207A20CA00CBE1B9F
:10012800A207A20CA00CA1013D18A207A20CA10CC9
:10013800BD18A207A20CA10C3D19A207A20CA10C84
:10014800BD19A207A20CA10C3D1AA207A20CA10C72
:10015800BD1AA207A20CA10C3D1BA207A20CA10C60
:10016800BD1BA207A20CA10C200052088600530850
:100178008700FF30FA000330FB00403F7A02BF00DF
:10018800413F7B3BCA28FF30BF000330C0003F30EF
:1001980085310C2522008E128B177E1009008031C4
:1001A800D52885317C258031D20085317D25803167
:1001B800D300F001F101F201F301F401F50120305F
:1001C800840000308500223085316C257E102000A7
:1001D8008431BE2C0034023404340234083402342E
:1001E8000C34023410340234143402341834023417
:1001F8001C340234203402342434023428340234C7
:100208002C34023430340234343402343834023476
:100218003C34023440340234443402344834023426
:100228004C340234503402345434023458340234D6
:100238005C34023460340234643402346834023486
:100248006C34023470340234743402347834023436
:100258007C340234803402348434023488340234E6
:100268008C34023490340234943402349834023496
:100278009C340234A0340234A4340234A834023446
:10028800AC340234B0340234B4340234B8340234F6
:10029800BC340234C0340234C4340234C8340234A6
:1002A800CC340234D0340234D4340234D834023456
:1002B800DC340234E0340234E4340234E834023406
:1002C800EC340234F0340234F4340234F8340234B6
:1002D800FB340234FF340234033403340734033468
:1002E8000B3403340F340334133403341734033416
:1002F8001B3403341F3403342334033427340334C6
:100308002B3403342F340334333403343734033475
:100318003B3403343F340334433403344734033425
:100328004B3403344F3403345334033457340334D5
:100338005B3403345F340334633403346734033485
:100348006B3403346F340334733403347734033435
:100358007B3403347F3403348334033487340334E5
:100368008B3403348F340334933403349734033495
:100378009B3403349F340334A3340334A734033445
:10038800AB340334AF340334B3340334B7340334F5
:10039800BB340334BF340334C3340334C7340334A5
:1003A800CB340334CF340334D3340334D734033455
:1003B800DB340334DF340334E3340334E734033405
:1003C800EB340334EF340334F3340334F7340334B5
:1003D800FB340334FF34033400340234063402346B
:1003E8000C34023412340234193402341F34023407
:1003F800253402342B340234323402343834023493
:100408003E340234443402344B340234513402341E
:10041800573402345D3402346334023469340234AC
:1004280070340234763402347C3402348234023438
:10043800883402348E340234943402349A340234C8
:10044800A0340234A6340234AC340234B234023458
:10045800B8340234BD340234C3340234C9340234EB
:10046800CF340234D5340234DA340234E03402347E
:10047800E5340234EB340234F1340234F634023415
:10048800FC34023401340334063403340C340334AA
:1004980011340334163403341C3403342134033444
:1004A800263403342B3403343034033435340334E2
:1004B8003A3403343F340334443403344934033482
:1004C8004E34033452340334573403345C34033425
:1004D8006034033465340334693403346E340334CC
:1004E80072340334763403347A3403347F34033477
:1004F80083340334873403348B3403348F34033424
:1005080093340334973403349A3403349E340334D5
:10051800A2340334A5340334A9340334AC3403348B
:10052800B0340334B3340334B6340334B934033445
:10053800BD340334C0340334C3340334C634033401
:10054800C8340334CB340334CE340334D1340334C5
:10055800D3340334D6340334D8340334DA3403348C
:10056800DD340334DF340334E1340334E334033457
:10057800E5340334E7340334E9340334EB34033427
:10058800EC340334EE340334F0340334F1340334FC
:10059800F3340334F4340334F5340334F6340334D5
:1005A800F7340334F9340334F9340334FA340334B4
:1005B800FB340334FC340334FD340334FD34033496
:1005C800FE340334FE340334FE340334FF3403347E
:1005D800FF340334FF340334FF34033400302D0276
:1005E800803003192C020318402B7308031D272B96
:1005F8002C082D04031D0A2BBB01052B2C087002A7
:10060800BB000130F2000130F10008007008C200A0
:100618002C084202C3002D090318890AC4004308A4
:10062800803EC5000030443DC600003046028030A0
:10063800031945020318022B2C08803CBB0001302B
:10064800F200F10108002D08C3002C08C200C336CF
:10065800C20C4208403CC7004708700203183C2BF4
:100668004708803CBB000130F2000230F10008006E
:100678004708BB00F201252B00302D0281300319F9
:100688002C02031C792B7308031D5B2B2D08C30058
:100698002C08C200C336C20C4208C13EC800480834
:1006A80070020318592B4808352B48083D2B2C0A93
:1006B8002D040319002B70082C07C2002D080318FD
:1006C8002D0AC3004208803EC400FF30433DC500E8
:1006D80000304502803003194402031C762B700851
:1006E8002C07042B2C08803E222B80302C062D044E
:1006F800031D0800BB01232B3208A4003308A50002
:10070800A601A7012708C5002608C4002508C300BC
:100718002408C2000030C9000030C8000230C700F9
:100728008A30C6008431632483314508AB0044080D
:10073800AA004308A9004208A8002808CE002908F2
:10074800CF002A08D0002B08D1000A30D136D00CAF
:10075800CF0CCE0C890BAA2B5108AB005008AA006D
:100768004F08A9004E08A8002908B9002808B800B1
:10077800003039027430031938020318C92B3808BD
:100788000C3EF0000130BA00080038088D3EB60073
:10079800FF30393DB7003708CF003608CE000730A4
:1007A800CF36CE0C890BD42B4E08B4004F08B500B9
:1007B8003408CE000630CE35FF3E031DDF2B4E3504
:1007C8003607F0003408023EBA0008008431E524F8
:1007D8008331F5008730C2008530C300843192240C
:1007E80083314308B3004208B2008630C200853026
:1007F800C3008431922483314308AF004208AE001D
:100808002F08CB002E08CA00CB36CA0CCB36CA0C30
:100818004A08AE004B08AF008530C2008530C300DF
:10082800843192244308AD004208AC002D08CB0067
:100838002C08CA00CB36CA0CCB36CA0C4A08AC0006
:100848004B08AD0008007203031D2D2C70083B07F0
:10085800372C7208031D332C3B087002372C7208A2
:10086800031D382C7008C1007103031D462C3A087B
:10087800553E840085300318013E8500000821009C
:100888009500080002307106031D552C3A08533EA6
:10089800840085300318013E85000008210095007A
:1008A80008007108031D08003A08543E840085308A
:1008B8000318013E8500000821009500080000305B
:1008C800CD000030CC000030CB000030CA00421C04
:1008D800752C4608CA074708CB3D4808CC3D49084F
:1008E800CD3D0130C635C70DC80DC90D890B762C15
:1008F8000130C536C40CC30CC20C890B7D2C4508CD
:10090800440443044204031D6B2C4D08C5004C08E5
:10091800C4004B08C3004A08C200080021009D011A
:10092800200042088400430885000008C400013004
:10093800C435FF3E031D9C2C4435C70021001D080B
:100948002000470421009D001D140D30890BAA2C9E
:10095800000021009D149D18AF2C1D101C082000BC
:10096800C60021001B082000C5004608C300450832
:10097800C200080085313F25843185315C258431EA
:1009880085317E2584318331EA2384318331802384
:1009980084318231F22284318431272484314130F8
:1009A8008531642584318B178331EA23843183317F
:1009B800802384318231F2228431843127248431A6
:1009C800D82C88302000C2008530C300843192249E
:1009D80084314308C9004208C80001304902563032
:1009E800031948020318FA2C0030080002304902A3
:1009F800AB30031948020318032D013008000430F6
:100A080049020030031948020318012D023008007A
:100A1800F900790886008701403FF600413FF7005A
:100A2800F736F60CF736F60C7608260091007908AA
:100A38008600870101080339F8007808F6000330BA
:100A4800F635FF3E031D242D763513049300080068
:100A580022009A13911321000C15FF3020009B00EF
:100A6800260013080F38930025009E0120009110DE
:100A78001C089C00080085317225853185314B257D
:100A8800853185317825853185312C2508000F3051
:100A980023008E000F3021008E0024008E010800F4
:100AA8000734063405340434033402340134003482
:100AB80091101C15911C5E2D911021000C1108003D
:100AC8002000C2004208860087010108950008003E
:100AD800640080010131890B6D2D0034F030210054
:100AE80099001F3098000800A03021009E000800DF
:100AF800213400348B1608000234013400340034E9
:0A0B080001340734063405340434C8
:020000040001F9
:04000E00E409FF0FF3
:00000001FF
