:08000000803102288731F12F45
:10000A0080302000D1065508BD005408BC005308B2
:10001A00BB005208BA005108C1005008C0004F087E
:10002A00BF004E08BE008031242020003D08D100C8
:10003A003C08D0003B08CF003A08CE000800200058
:10004A003D088039CA003D35CC00BC1B4C144C0815
:10005A0003193D284C0A031D3A280030BD00003020
:10006A00BC000030BB000030BA00BC17BD014528F7
:10007A000030BD000030BC000030BB000030BA00C8
:10008A0041088039CB004B084A06031D4A174135FF
:10009A00CB00C01B4B144B08031961284B0A031DE4
:1000AA005E280030C1000030C0000030BF000030C0
:1000BA00BE00C017C10169280030C1000030C0006D
:1000CA000030BF000030BE004C084B0203189128D4
:1000DA004A1F73288030C2004208CA064C08CD0065
:1000EA004B08CC004D08CB003A08CD003E08BA00B8
:1000FA004D08BE003B08CD003F08BB004D08BF00BD
:10010A003C08CD004008BC004D08C0003D08CD00A9
:10011A004108BD004D08C100CD014B08C200C30112
:10012A004308C5004C084202C400031CC503450825
:10013A00803AC60080304602031DA5281A304402C0
:10014A00031CD32820003D083C043B043A0403194D
:10015A00B0280130B1280030CD000030BD00003099
:10016A00BC000030BB000030BA004B08CC00D828D5
:10017A004D1CC3284D360138CD00C5280310CD0CBF
:10018A003A18CD170130C200BD37BC0CBB0CBA0CF3
:10019A00C20BC9280130C2004208CC0720004B0814
:1001AA004C02031CBD284A1B07294C08031DE628DC
:1001BA000030BD000030BC000030BB000030BA0087
:1001CA0008003E08BA073F08BB3D4008BC3D41084D
:1001DA00BD3D3D1C81294D1CF6284D360138CD0008
:1001EA00F8280310CD0C3A18CD170130C200BD37DC
:1001FA00BC0CBB0CBA0CC20BFC280130C200420872
:10020A00CC0781293D08803AC2004108803A42025F
:10021A00031D192940083C02031D19293F083B0206
:10022A00031D19293E083A0203185129FF30C2005A
:10023A00FF30C300FF30C400FF30C5003A083E0259
:10024A00C6003B083F3BC7003C08403BC8003D088E
:10025A00413BC9004608C2074708C33D4808C43D98
:10026A004908C53D4508BD004408BC004308BB0019
:10027A004208BA008030C2004208CA06CD09CD0A37
:10028A004D08031D59290130BA070030BB3D003023
:10029A00BC3D0030BD3D59293E08BA023F08BB3B70
:1002AA004008BC3B4108BD3B3D083C043B043A04C2
:1002BA00031D7F294D08031D7F290030BD00003032
:1002CA00BC000030BB000030BA0008000130BA356B
:1002DA00BB0DBC0DBD0D890B6C29CD1B3A144D1CF1
:1002EA007829031479290310CD0D4C0803197F29A5
:1002FA000130CC02BC1F6B29CB01CD1F8C294D08C4
:10030A007F3903193A188A298C29CB01CB0A4B0861
:10031A000319B8290130BA070030BB3D0030BC3D93
:10032A000030BD3D3D1CB8293A08C2003B08C30055
:10033A003C08C4003D08C5000130C600C537C40CDE
:10034A00C30CC20CC60BA3294508BD004408BC0057
:10035A004308BB004208BA004C0A0319B829013005
:10036A00C2004208CC074C0A031D4C08031DC829C9
:10037A000030BD000030BC000030BB000030BA00C5
:10038A004C080319CA014C1CCC29BC17D0297F3050
:10039A00C2004208BC054C36BD00CA1F0800BD1782
:1003AA00080021003F082200ED0021003E0822003B
:1003BA00EC0021003D082200EB0021003C0822004D
:1003CA00EA0020006B082200ED0020006A082200E3
:1003DA00EC00200069082200EB00200068082200D7
:1003EA00EA00C001C1016D08031DFF2980306C02BB
:1003FA00031C022A2200ED1F882A22006A08210013
:10040A00A00022006B082100A10022006C08210034
:10041A00A20022006D082100A3000130A035A10D21
:10042A00A20DA30D890B132A2308220421042004F8
:10043A00031D382AFF302200ED008030EC00003026
:10044A00EB000030EA006D082000EB0022006C0887
:10045A002000EA0022006B082000E90022006A0856
:10046A002000E80008002200ED1F572A2130EE0084
:10047A000030EF007F30ED00FF30EC00FF30EB0082
:10048A00FF30EA006D082000EB0022006C08200013
:10049A00EA0022006B082000E90022006A08200016
:1004AA00E8000800E730C007FF30C13D4C302000AB
:1004BA00A3000030A2000030A1000030A0006B08A9
:1004CA00A7006A08A6006908A5006808A4008D317B
:1004DA00F025813120002308EB002208EA002108D8
:1004EA00E9002008E8006B082200ED0020006A08F5
:1004FA002200EC00200069082200EB0020006808B6
:10050A002200EA00A22A80306C027F306D3B031879
:10051A000800803022006C063F3003196D066A0419
:10052A006B04031DA22A00302000EB000030EA0011
:10053A000030E9000030E80008000D302200EA0728
:10054A00FB30EB3D4A30EC3D0030ED3D6A082100BE
:10055A00A00022006B082100A10022006C082100E3
:10056A00A20022006D082100A3001730A336A20CB6
:10057A00A10CA00C890BBB2A2008813EA400FF30E5
:10058A00213DA50024082200C007210025082200D9
:10059A00C13DF3302100A0000430A1003530A20093
:1005AA003F30A300FF3022006A052100A400FF307B
:1005BA0022006B052100A5007F3022006C05210076
:1005CA00A600003022006D052100A7002408A0071C
:1005DA002508A13D2608A23D2708A33D230822009D
:1005EA00ED00210022082200EC002100210822004F
:1005FA00EB00210020082200EA00BF302000BD00E5
:10060A008030BC000030BB000030BA0022006D0808
:10061A002000C10022006C082000C00022006B08E4
:10062A002000BF0022006A082000BE00803124207A
:10063A00813120003D082200E90020003C08220008
:10064A00E80020003B082200E70020003A082200C8
:10065A00E60040302000BD000030BC000030BB0086
:10066A000030BA00220069082000C1002200680890
:10067A002000C000220067082000BF002200660890
:10068A002000BE0080312420813120003D08D100A5
:10069A003C08D0003B08CF003A08CE002200690887
:1006AA002000D500220068082000D4002200670834
:1006BA002000D300220066082000D2008C3180245A
:1006CA008131200051082200D50020005008220064
:1006DA00D40020004F082200D30020004E08220038
:1006EA00D20055082000A300220054082000A200CE
:1006FA00220053082000A100220052082000A00076
:10070A00220055082000A700220054082000A60055
:10071A00220053082000A500220052082000A4004D
:10072A008D31F0258131200023082200D9002000D4
:10073A0022082200D800200021082200D700200029
:10074A0020082200D60059082000A30022005808D9
:10075A002000A200220057082000A100220056080B
:10076A002000A000220059082000A70022005808F3
:10077A002000A600220057082000A50022005608E3
:10078A002000A4008D31F0258131200023082200A9
:10079A00DD00200022082200DC00200021082200BF
:1007AA00DB00200020082200DA003E302000BD00D5
:1007BA00CC30BC00CE30BB001330BA003E30A300B0
:1007CA007830A2009E30A1002630A00022005D08E9
:1007DA002000A70022005C082000A60022005B0877
:1007EA002000A50022005A082000A4008D31F0251F
:1007FA00813120002308C1002208C0002108BF005F
:10080A002008BE0080312420813120003D082200CA
:10081A00E10020003C082200E00020003B08220002
:10082A00DF0020003A082200DE005D082000A30055
:10083A0022005C082000A20022005B082000A10020
:10084A0022005A082000A000220061082000A70008
:10085A00220060082000A60022005F082000A500F0
:10086A0022005E082000A4008D31F025813120008D
:10087A0023082200A700200022082200A600200048
:10088A0021082200A500200020082200A4003F30F1
:10089A002000BD002A30BC00AA30BB00AA30BA0032
:1008AA003E30A3009130A200E930A100EE30A00052
:1008BA0022005D082000A70022005C082000A60094
:1008CA0022005B082000A50022005A082000A4008C
:1008DA008D31F025813120002308C1002208C00093
:1008EA002108BF002008BE00803124208131200069
:1008FA003D082200E10020003C082200E000200020
:10090A003B082200DF0020003A082200DE005908D6
:10091A002000A300220058082000A2002200570845
:10092A002000A100220056082000A0002200610831
:10093A002000A700220060082000A60022005F080D
:10094A002000A50022005E082000A4008D31F025B9
:10095A008131200023082200AB0020002208220057
:10096A00AA00200021082200A90020002008220055
:10097A00A80027082000BD00220026082000BC008D
:10098A00220025082000BB00220024082000BA000B
:10099A0022002B082000C10022002A082000C000E3
:1009AA00220029082000BF00220028082000BE00DB
:1009BA0080312420813120003D082200A30020003C
:1009CA003C082200A20020003B082200A1002000CF
:1009DA003A082200A0003F302000A3000030A20005
:1009EA000030A1000030A000220069082000A70002
:1009FA00220068082000A600220067082000A5003F
:100A0A00220066082000A4008D31F02581312000E3
:100A1A0023082200E100200022082200E000200032
:100A2A0021082200DF00200020082200DE006908D9
:100A3A002000A300220068082000A2002200670804
:100A4A002000A100220066082000A0002200610800
:100A5A002000A700220060082000A60022005F08EC
:100A6A002000A50022005E082000A4008D31F02598
:100A7A008131200023082200D10020002208220010
:100A8A00D000200021082200CF00200020082200E8
:100A9A00CE0051082000D100220050082000D000CA
:100AAA0022004F082000CF0022004E082000CE006E
:100ABA00220069082000D500220068082000D4001E
:100ACA00220067082000D300220066082000D20016
:100ADA00803105208131200051082200E5002000E4
:100AEA0050082200E40020004F082200E300200002
:100AFA004E082200E2006508ED006408EC00630875
:100B0A00EB006208EA000030EA05F030EB05FF303E
:100B1A00EC05FF30ED056D08E5006C08E4006B0894
:100B2A00E3006A08E20065082000D1002200640898
:100B3A002000D000220063082000CF0022006208B3
:100B4A002000CE00220069082000D5002200680893
:100B5A002000D400220067082000D3002200660883
:100B6A002000D20080310520813120005108220066
:100B7A00AF00200050082200AE0020004F082200DB
:100B8A00AD0020004E082200AC0055082000A3004A
:100B9A00220054082000A200220053082000A100CD
:100BAA00220052082000A000220023082000BD00D5
:100BBA00220022082000BC00220021082000BB00DD
:100BCA00220020082000BA00220051082000C1009B
:100BDA00220050082000C00022004F082000BF0059
:100BEA0022004E082000BE008031242081312000DE
:100BFA003D08A7003C08A6003B08A5003A08A40047
:100C0A008D31F0258131200023082200CD002000FB
:100C1A0022082200CC00200021082200CB0020005C
:100C2A0020082200CA0051082000D10022005008E2
:100C3A002000D00022004F082000CF0022004E08DA
:100C4A002000CE0022002F082000D50022002E0806
:100C5A002000D40022002D082000D30022002C08F6
:100C6A002000D20080310520813120005108220065
:100C7A00B300200050082200B20020004F082200D2
:100C8A00B10020004E082200B0004D082000BD002F
:100C9A0022004C082000BC0022004B082000BB00A8
:100CAA0022004A082000BA00220033082000C100AE
:100CBA00220032082000C000220031082000BF00B4
:100CCA00220030082000BE0080312420813120001B
:100CDA003D082200C90020003C082200C80020006C
:100CEA003B082200C70020003A082200C60040083C
:100CFA00F0004108F100890D893B8909F200F300EF
:100D0A0001308B31ED23813173082200C50072084E
:100D1A00C4007108C3007008C200B8302000A300E4
:100D2A000430A200EA30A100D930A00022006508F0
:100D3A002000BD00220064082000BC0022006308D5
:100D4A002000BB00220062082000BA0022004908E5
:100D5A002000C100220048082000C00022004708E5
:100D6A002000BF00220046082000BE008031242057
:100D7A00813120003D08A7003C08A6003B08A500D9
:100D8A003A08A4008D31F025813120002308220081
:100D9A00B700200022082200B60020002108220005
:100DAA00B500200020082200B40037082000BD004A
:100DBA00220036082000BC00220035082000BB00B3
:100DCA00220034082000BA003530A3005430A200B3
:100DDA002730A100DB30A000220045082000A70030
:100DEA00220044082000A600220043082000A50093
:100DFA00220042082000A4008D31F0258131200014
:100E0A002308C1002208C0002108BF002008BE0034
:100E1A0080312420813120003D082200CD002000AD
:100E2A003C082200CC0020003B082200CB00200016
:100E3A003A082200CA003E302000A300DE30A20099
:100E4A006030A1000030A000220049082000A7005D
:100E5A00220048082000A600220047082000A5001A
:100E6A00220046082000A4008D31F025813120009F
:100E7A002308BD002208BC002108BB002008BA00D4
:100E8A0022004D082000C10022004C082000C000AA
:100E9A0022004B082000BF0022004A082000BE00A2
:100EAA0080312420813120003D082200BB0020002F
:100EBA003C082200BA0020003B082200B9002000AA
:100ECA003A082200B8003E302000A300DE30A2001B
:100EDA006030A1000030A000220065082000A700B1
:100EEA00220064082000A600220063082000A50052
:100EFA00220062082000A4008D31F02581312000F3
:100F0A002308BD002208BC002108BB002008BA0043
:100F1A0022003B082000C10022003A082000C0003D
:100F2A00220039082000BF00220038082000BE0035
:100F3A0080312420813120003D082200BF0020009A
:100F4A003C082200BE0020003B082200BD00200011
:100F5A003A082200BC003E302000A3009A30A200CA
:100F6A002030A1008030A000220045082000A70000
:100F7A00220044082000A600220043082000A50001
:100F8A00220042082000A4008D31F0258131200082
:100F9A002308BD002208BC002108BB002008BA00B3
:100FAA0022003F082000C10022003E082000C000A5
:100FBA0022003D082000BF0022003C082000BE009D
:100FCA008031242020003D08EB003C08EA003B0861
:100FDA00E9003A08E80008002100BC01BD01BE0191
:100FEA00BF01C001C101C201C3012200EE01EF012C
:100FFA0020008A31C92A0034023404340234083405
:10100A0002340C34023410340234143402341834E6
:10101A0002341C3402342034023424340234283496
:10102A0002342C3402343034023434340234383446
:10103A0002343C34023440340234443402344834F6
:10104A0002344C34023450340234543402345834A6
:10105A0002345C3402346034023464340234683456
:10106A0002346C3402347034023474340234783406
:10107A0002347C34023480340234843402348834B6
:10108A0002348C3402349034023494340234983466
:10109A0002349C340234A0340234A4340234A83416
:1010AA000234AC340234B0340234B4340234B834C6
:1010BA000234BC340234C0340234C4340234C83476
:1010CA000234CC340234D0340234D4340234D83426
:1010DA000234DC340234E0340234E4340234E834D6
:1010EA000234EC340234F0340234F4340234F83486
:1010FA000234FC3402340034033404340334083434
:10110A0003340C34033410340334143403341834E1
:10111A0003341C3403342034033424340334283491
:10112A0003342C3403343034033434340334383441
:10113A0003343C34033440340334443403344834F1
:10114A0003344C34033450340334543403345834A1
:10115A0003345C3403346034033464340334683451
:10116A0003346C3403347034033474340334783401
:10117A0003347C34033480340334843403348834B1
:10118A0003348C3403349034033494340334983461
:10119A0003349C340334A0340334A4340334A83411
:1011AA000334AC340334B0340334B4340334B834C1
:1011BA000334BC340334C0340334C4340334C83471
:1011CA000334CC340334D0340334D4340334D83421
:1011DA000334DC340334E0340334E4340334E834D1
:1011EA000334EC340334F0340334F4340334F83481
:1011FA000334FC34033400340234063402340C342D
:10120A00023412340234193402341F3402342534BD
:10121A0002342B34023432340234383402343E3449
:10122A000234443402344B340234513402345734D5
:10123A0002345D3402346334023469340234703463
:10124A000234763402347C340234823402348834F0
:10125A0002348E340234943402349A340234A03480
:10126A000234A6340234AC340234B2340234B83410
:10127A000234BD340234C3340234C9340234CF34A4
:10128A000234D5340234DA340234E0340234E53438
:10129A000234EB340234F1340234F6340234FC34CE
:1012AA00023401340334063403340C340334113465
:1012BA000334163403341C340334213403342634FF
:1012CA0003342B34033430340334353403343A349E
:1012DA0003343F34033444340334493403344E343E
:1012EA00033452340334573403345C3403346034E3
:1012FA00033465340334693403346E34033472348A
:10130A000334763403347A3403347F340334833435
:10131A000334873403348B3403348F3403349334E3
:10132A000334973403349A3403349E340334A23496
:10133A000334A5340334A9340334AC340334B0344D
:10134A000334B3340334B6340334B9340334BD3408
:10135A000334C0340334C3340334C6340334C834C6
:10136A000334CB340334CE340334D1340334D3348A
:10137A000334D6340334D8340334DA340334DD3452
:10138A000334DF340334E1340334E3340334E5341F
:10139A000334E7340334E9340334EB340334EC34F0
:1013AA000334EE340334F0340334F1340334F334C5
:1013BA000334F4340334F5340334F6340334F734A1
:1013CA000334F9340334F9340334FA340334FB3480
:1013DA000334FC340334FD340334FD340334FE3463
:1013EA000334FE340334FE340334FF340334FF344D
:1013FA000334FF34033426349E3478343E34EE34D6
:10140A00E93491343E341334CE34CC343E34AA34E5
:10141A00AA342A343F34DB34273454343534803404
:10142A0020349A343E34D934EA340434B83400349B
:0C143A006034DE343E34043405340634E3
:10148C00A03021009E000800703021009900080057
:10149C0023000E0807388E0021000E0807388E0036
:1014AC0024000E088E00080022009A1391132100CC
:1014BC000C15FF3020009B002600130849389300C0
:1014CC0025009E01200091101C089C000800F400CF
:1014DC007408203E84008A300318013E8500000801
:1014EC0021001D049D001D149D149D187B2A1D10A8
:1014FC001C08F3001B08F2007308F1007208F000DE
:10150C000800F800F401F5017008F200F30172080C
:10151C00F6007308F700781C972A7608F40777080A
:10152C00F53D0130F635F70D890B982A0310F80CB0
:10153C007808031D912A7508F1007408F000080062
:10154C0000308A316D228A317108F6007008F5007E
:10155C00013076025630031975020318B72A003091
:10156C00080002307602AB30031975020318C02A4A
:10157C00013008000430760200300319750203189C
:10158C00BE2A023008008A314A228A318A314E2220
:10159C008A318A3146228A318A315A228A318A31F9
:1015AC00A6228A312100C60001308A316D228A318F
:1015BC0071082100C8007008C70002308A316D2202
:1015CC008A3171082100C5007008C400C230AE0019
:1015DC00C7308B3166238A31F22A031020006E0D3E
:1015EC006F0D2100AD002D08031D062B00302000CF
:1015FC00EF000030EE000030ED000030EC00080091
:10160C0020006C082100A80020006D082100A90012
:10161C0020006E082100AA0020006F082100AB00FA
:10162C001F30AB36AA0CA90CA80C890B172B280859
:10163C00AC002000EE17FF30EC05FF30ED05FF305D
:10164C00EE050030EF0596302100AD02AD1F432BA7
:10165C002D08803A973E031CFC2A01302000EF36FF
:10166C00EE0CED0CEC0C890B342B01302100A80096
:10167C002808AD070319562B332B20302D020318E5
:10168C00FC2A2D080319562B01302000EC35ED0DEA
:10169C00EE0DEF0D890B4B2B01302100AD02472BCA
:1016AC002C08031908002000EC09ED09EE09EF09DC
:1016BC00EC0A0319ED0A0319EE0A0319EF0A0800E4
:1016CC002100BB003B088600870116000104031DA6
:1016DC00762B2E08860087010030C03FC13F0800E2
:1016EC003B0886008701403FAF00413FB0002F0808
:1016FC00F0003008F100F201F30100308B31ED23E2
:10170C008B3173082100B4007208B3007108B20069
:10171C007008B10034082000EB00210033082000D1
:10172C00EA00210032082000E900210031082000E5
:10173C00E8008131D6218B3120006B082100B800E4
:10174C0020006A082100B700200069082100B600BB
:10175C00200068082100B50038082000A7002100EF
:10176C0037082000A600210036082000A500210023
:10177C0035082000A4004330A300AA30A20080301A
:10178C00A1000030A0008D31F0258B312000230802
:10179C00EF002208EE002108ED002008EC008A3151
:1017AC00F32220006D082100BA0020006C082100F3
:1017BC00B900FF303905AF0003303A05B0002E08F0
:1017CC00860087012F08C03F3008C13F0800F80091
:1017DC007808031DF31F022C7009FA007109FB0035
:1017EC007209FC007309FD00FA0A0319FB0A0319BC
:1017FC00FC0A0319FD0A0A2C7308FD007208FC0090
:10180C007108FB007008FA0073087204710470040C
:10181C00031D192C0030F3000030F2000030F100F1
:10182C000030F00008009630F900FE307D050319F9
:10183C003E2C0130F4007408F9070130FD36FC0C25
:10184C00FB0CFA0C890B242C1B2C0130F4007408B3
:10185C00F9070130FA070030FB3D0030FC3D003049
:10186C00FD3D0130FD36FC0CFB0CFA0C890B382CC1
:10187C00FF307D050319502C2B2C02307902031CF0
:10188C00522C0130F9020130FA35FB0DFC0DFD0D27
:10189C00890B4A2CFC1F432C79185C2CFF30FA0561
:1018AC00FF30FB057F30FC05FF30FD050310F90C04
:1018BC007908F400F501F601F7011830F435F50D4F
:1018CC00F60DF70D890B642C7408FA047508FB04EB
:1018DC007608FC047708FD047808031DF31F772CA9
:1018EC00FD177D08F3007C08F2007B08F1007A08F4
:1018FC00F0000800200055088039DF005535E6005F
:10190C00D41B661466080319992C660A031D962CC1
:10191C000030D5000030D4000030D3000030D200AD
:10192C00D417D501A12C0030D5000030D4000030E4
:10193C00D3000030D20051088039D6005608DF069B
:10194C005135E700D01B671467080319BB2C670AD5
:10195C00031DB82C0030D1000030D0000030CF0077
:10196C000030CE00D017D101C32C0030D100003094
:10197C00D0000030CF000030CE00510850044F048E
:10198C004E04031DE22C0030D5000030D400003092
:10199C00D3000030D2008030D4047F30D5045F08EF
:1019AC00D6005608D5045508D1005408D000530869
:1019BC00CF005208CE0008006608031DEE2C003044
:1019CC00D1000030D0000030CF000030CE00080035
:1019DC006608D600D7015708D90067085602D80008
:1019EC00031CD90358087F3EE0000030593DE1004C
:1019FC005508DE005408DD005308DC005208DB00FB
:101A0C000030D5000030D4000030D3000030D200BC
:101A1C000030E5000030E4000030E3000030E2006C
:101A2C00E7011A3067020318532D67080319352D87
:101A3C000130DB35DC0DDD0DDE0D890B1F2D01308A
:101A4C00D235D30DD40DD50D890B262DE51B521493
:101A5C000130E235E30DE40DE50D890B2F2D510816
:101A6C005E02031D432D50085D02031D432D4F08DC
:101A7C005C02031D432D4E085B02031C4E2D6517A3
:101A8C004E08DB024F08DC3B5008DD3B5108DE3BC7
:101A9C000130D6005608E707172D5E085D045C047C
:101AAC005B04031D6214D41B702D0130D235D30D91
:101ABC00D40DD50D890B5C2DE51B52140130E2358C
:101ACC00E30DE40DE50D890B652DFF30E007FF30CC
:101ADC00E13D592DE701E51F892DFF306205D60048
:101AEC00FF306305D700FF306405D8007F306505F3
:101AFC00D900590858045704560403195218872D55
:101B0C00892DE701E70A67080319B22D0130D207C6
:101B1C000030D33D0030D43D0030D53D551CB22DA6
:101B2C005208D6005308D7005408D8005508D900DD
:101B3C000130DA00D937D80CD70CD60CDA0BA02D23
:101B4C005908D5005808D4005708D3005608D200BD
:101B5C000130E0070030E13D6108803AD60080306A
:101B6C005602031DBB2DFF306002031CCA2DFF3033
:101B7C002000E0000030E1000030D5000030D4003F
:101B8C000030D3000030D20020006108803AD6002B
:101B9C0080305602031DD42D013060020318E22D53
:101BAC002000E001E1010030D5000030D40000300D
:101BBC00D3000030D200DF0120006008E600661C74
:101BCC00E92DD417ED2D7F30D6005608D405663696
:101BDC00D500D52C200023088039AD002335B30067
:101BEC00A21B331433080319082E330A031D062EC7
:101BFC000030A3000030A2000030A1000030A00093
:101C0C00A217102E0030A3000030A2000030A1005B
:101C1C000030A00027088039A8002808AD06273519
:101C2C00B200A61B321432080319292E320A031DE6
:101C3C00272E0030A7000030A6000030A500003091
:101C4C00A400A617312E0030A7000030A6000030EB
:101C5C00A5000030A4003208031D3308031D3F2EDD
:101C6C000030A3000030A2000030A1000030A00022
:101C7C0008002008F00026088A3187228D3171086F
:101C8C002000B9007008B8003808A800A901AA0102
:101C9C00AB012B08B1002A08B0002908AF002808B6
:101CAC00AE003908A800A901AA01AB012B08B700A6
:101CBC002A08B6002908B5002808B4002108F0004D
:101CCC0025088A3187228D3171082000B9007008EF
:101CDC00B8003808A800A901AA01AB012808AE0772
:101CEC002908AF3D2A08B03D2B08B13D3908A800A2
:101CFC00A901AA01AB012808B4072908B53D2A0897
:101D0C00B63D2B08B73D2208F00024088A31872203
:101D1C008D3171082000B9007008B8003808A8008F
:101D2C00A901AA01AB012808AE072908AF3D2A0872
:101D3C00B03D2B08B13D3908A800A901AA01AB019F
:101D4C002808B4072908B53D2A08B63D2B08B73D2D
:101D5C000830AE35AF0DB00DB10D890BAF2E21088B
:101D6C00F00024088A3187228D3171082000B900D7
:101D7C007008B8003808AE073908AF3D0030B03DE8
:101D8C00B13D2008F00025088A3187228D31710879
:101D9C002000B9007008B8003808AE073908AF3D0C
:101DAC000030B03DB13D0830AE35AF0DB00DB10DCA
:101DBC00890BDA2E2008F00024088A3187228D3115
:101DCC0071082000B9007008B8003808AE0739084F
:101DDC00AF3D0030B03DB13D2108F00026088A31FE
:101DEC0087228D3171082000B9007008B8003808BE
:101DFC00B4073908B53D0030B63DB73D2208F000B8
:101E0C0025088A3187228D3171082000B9007008AD
:101E1C00B8003808B4073908B53D0030B63DB73DB9
:101E2C002208F00026088A3187228D3171082000A3
:101E3C00B9007008B8003808A8003908A900AA0130
:101E4C00AB010830A835A90DAA0DAB0D890B282FB5
:101E5C002808B4072908B53D2A08B63D2B08B73D1C
:101E6C002E08A8002F08A9003008AA003108AB00E2
:101E7C001830AB36AA0CA90CA80C890B3F2F2808DC
:101E8C00B4072908B53D2A08B63D2B08B73D0830E4
:101E9C00AE35AF0DB00DB10D890B4E2F3308320797
:101EAC00A800A901A90D2808823EB800FF30293DE1
:101EBC00B900B61B762F0130B435B50DB60DB70D84
:101ECC00890B622FB11B34140130AE35AF0DB00D40
:101EDC00B10D890B6B2FFF30B807FF30B93D5F2F69
:101EEC00B201B11F8F2FFF302E05A800FF302F0538
:101EFC00A900FF303005AA007F303105AB002B085C
:101F0C002A0429042804031934188D2F8F2FB201A9
:101F1C00B20A32080319B82F0130B4070030B53DAE
:101F2C000030B63D0030B73D371CB82F3408A80040
:101F3C003508A9003608AA003708AB000130AC0000
:101F4C00AB37AA0CA90CA80CAC0BA62F2B08B7000E
:101F5C002A08B6002908B5002808B4000130B807D3
:101F6C000030B93D3908803AA80080302802031DA2
:101F7C00C12FFF303802031CCD2F7F302000B7005B
:101F8C008030B6000030B5000030B400F32F2000D4
:101F9C003908803AA80080302802031DD72F013061
:101FAC0038020318E42F00302000B7000030B600D0
:101FBC000030B5000030B400AD01F32F200038081C
:101FCC00B300FF30B405FF30B5057F30B6050030E7
:101FDC00B7053318B6173336B7002D08A8002808F4
:101FEC00B7043708A3003608A2003508A10034084E
:041FFC00A000080039
:020000040001F9
:04000E00E409FF0EF4
:00000001FF
